:1000000022C6000051C600004FC600004DC60000C9
:100010004BC6000049C6000047C6000045C60000A8
:1000200043C6000041C600003FC600003DC60000B8
:100030003BC6000039C6000037C6000035C60000C8
:1000400033C6000031C600002FC600002DC60000D8
:100050002BC6000029C6000027C600000C94C61E4F
:1000600023C600000C94901E0C94661E1DC6000052
:100070001BC6000019C6000017C6000015C6000008
:1000800013C6000011C600000FC600000DC6000018
:100090000BC6000009C6000007C600000C94101F24
:1000A00003C6000001C60000FFC50000FDC500003A
:1000B000FBC50000F9C50000F7C50000F5C500004C
:1000C000F3C50000F1C50000EFC50000EDC500005C
:1000D000EBC50000E9C50000E7C50000E5C500006C
:1000E000E3C500007FF08008BFECBFECBFECBFECC5
:1000F00080087FF07FF08008BFCCBFCCBFCCBFCCE6
:1001000080087FF07FF08008BF8CBF8CBF8CBF8CD5
:1001100080087FF07FF08008BF0CBF0CBF0CBF0CC5
:1001200080087FF07FF08008BE0CBE0CBE0CBE0CB9
:1001300080087FF07FF08008BC0CBC0CBC0CBC0CB1
:1001400080087FF07FF08008B80CB80CB80CB80CB1
:1001500080087FF07FF08008B00CB00CB00CB00CC1
:1001600080087FF07FF08008800C800C800C800C71
:1001700080087FF000000000003E5B4F5B3E3E6B5E
:100180004F6B3E1C3E7C3E1C183C7E3C181C577D31
:10019000571C1C5E7F5E1C00183C1800FFE7C3E77D
:1001A000FF0018241800FFE7DBE7FF30483A060E8F
:1001B0002629792926407F050507407F05253F5AD6
:1001C0003CE73C5A7F3E1C1C08081C1C3E7F142246
:1001D0007F22145F5F005F5F06097F017F006689F1
:1001E000956A606060606094A2FFA29408047E0437
:1001F0000810207E201008082A1C08081C2A08085D
:100200001E101010100C1E0C1E0C30383E3830061C
:100210000E3E0E06000000000000005F0000000718
:10022000000700147F147F14242A7F2A1223130846
:10023000646236495620500008070300001C224122
:10024000000041221C002A1C7F1C2A08083E0808C6
:100250000080703000080808080800006060002076
:10026000100804023E5149453E00427F4000724959
:100270004949462141494D331814127F10274545FD
:1002800045393C4A49493141211109073649494913
:1002900036464949291E0000140000004034000081
:1002A00000081422411414141414004122140802EA
:1002B000015909063E415D594E7C1211127C7F495D
:1002C0004949363E414141227F4141413E7F4949B2
:1002D00049417F090909013E414151737F080808DE
:1002E0007F00417F41002040413F017F08142241AF
:1002F0007F404040407F021C027F7F0408107F3E09
:100300004141413E7F090909063E4151215E7F0975
:10031000192946264949493203017F01033F4040DC
:10032000403F1F2040201F3F4038403F63140814C7
:100330006303047804036159494D43007F414141FF
:100340000204081020004141417F040201020440E0
:1003500040404040000307080020545478407F2864
:100360004444383844444428384444287F3854545A
:10037000541800087E090218A4A49C787F0804047D
:100380007800447D40002040403D007F102844001C
:1003900000417F40007C047804787C0804047838AD
:1003A00044444438FC1824241818242418FC7C08DD
:1003B000040408485454542404043F44243C40405A
:1003C000207C1C2040201C3C4030403C442810280D
:1003D000444C9090907C4464544C44000836410056
:1003E0000000770000004136080002010204023CD0
:1003F0002623263C1EA1A161123A4040207A38549F
:100400005455592155557941225454784221555417
:10041000784020545579400C1E527212395555556A
:1004200059395454545939555454580000457C4155
:100430000002457D420001457C407D1211127DF095
:10044000282528F07C545545002054547C547C0ABF
:10045000097F4932494949323A4444443A324A4888
:1004600048303A4141217A3A42402078009DA0A08C
:100470007D3D4242423D3D4040403D3C24FF2424DE
:10048000487E4943662B2FFC2F2BFF0929F620C0FD
:10049000887E090320545479410000447D4130484E
:1004A000484A32384040227A007A0A0A727D0D1991
:1004B000317D2629292F28262929292630484D40F3
:1004C00020380808080808080808382F10C8ACBAEF
:1004D0002F102834FA00007B000008142A1422226E
:1004E000142A14085500550055AA55AA55AAFF55B7
:1004F000FF55FF000000FF00101010FF001414143F
:10050000FF001010FF00FF1010F010F0141414FC86
:10051000001414F700FF0000FF00FF1414F404FCA3
:10052000141417101F10101F101F1414141F001084
:100530001010F0000000001F101010101F101010FD
:1005400010F010000000FF1010101010101010100C
:10055000FF10000000FF140000FF00FF00001F104C
:10056000170000FC04F414141710171414F404F406
:100570000000FF00F714141414141414F700F714F7
:100580001414171410101F101F141414F414101046
:10059000F010F000001F101F0000001F14000000EA
:1005A000FC140000F010F01010FF10FF141414FFE2
:1005B000141010101F00000000F010FFFFFFFFFFDD
:1005C000F0F0F0F0F0FFFFFF0000000000FFFF0F71
:1005D0000F0F0F0F3844443844FC4A4A4A347E0215
:1005E000020606027E027E02635549416338444496
:1005F0003C04407E201E2006027E020299A5E7A54B
:10060000991C2A492A1C4C7201724C304A4D4D30BB
:100610003048784830BC625A463D3E494949007EE0
:100620000101017E2A2A2A2A2A44445F4444405177
:100630004A444040444A51400000FF0103E080FF2B
:10064000000008086B6B083612362436060F090FB7
:1006500006000018180000001010003040FF0101D3
:10066000001F01011E00191D1712003C3C3C3C00FC
:1006700000000000000103070F1F3F7F0080C0E063
:10068000F0F8FCFE00000A0B02090C0D0E0807032F
:100690000401000000000000000000000000000055
:1006A000000000000000000000000000000000004A
:1006B0001211100000000000000000000000000007
:1006C00000000000000000000000000021002400E5
:1006D00027002A002D003000330001010000040132
:1006E00007010A01DB40A4A62EAF2000A1C8D30059
:1006F000408DAED580A801021020200808102040AF
:1007000010204080020102010804020101020408D5
:100710001020408080402010080402018004020163
:1007200080402010080402010804020101020408AC
:1007300010204080010204081020408000002200A8
:10074000250028002B002E0031003400020100009B
:10075000050108010B01050505050705080808083E
:10076000020202020A0A0808040404040101010149
:100770000101010103030303030303030407070744
:100780000C0C0C0C0C0C0C0C0202020206060606E9
:10079000060606060B0B0B0B0B0B0B0B0000600089
:1007A00000000000000000000000000000E0000069
:1007B000000000000000000000000001E000000058
:1007C0000000000000000000000001F00000000038
:1007D00000000000000000000003F0000000000026
:1007E000000000000000000007F000000000000012
:1007F0000000000000000007F800000000000000FA
:100800000000000000000FF800000003C0007E00A0
:100810000001E0007F0FF800000003C000FE0000B0
:1008200001E000FFEFF800000003C000FE0000013F
:10083000E000FFFFF800000003C000F00000000F20
:10084000007FFE7FC0000003C000F00000000F002A
:100850003FFE7FF83FF1FBCFFCFEF3BC3DEFE01F16
:10086000FE7FFF7FFBFFDFFEFEFFBC3DEFE01FC60C
:10087000FFFF7FFBFFDFFEFEFFBC3DEFE00FE3C7A6
:10088000FE787BC3DE1EF0FFBC3DEF0007FF87FC58
:10089000787BC3DE1EF0F83C3DEF0001FFFFF00067
:1008A0007BC3C01EF0F03C3DEF0001F37FE03FFB57
:1008B000C3CFFEF0F03C3DEF0003E33F807FFBC37E
:1008C000DFFEF0F03C3DEF0007E73C00787BC3DE45
:1008D0001EF0F03C3DEF0007FFBE00787BC3DE1E3C
:1008E000F0F03C3DEF0007FFFE00787BC3DE1EF01A
:1008F000F03C3DEF000FFFFE007FFBFFDFFEF0F05E
:100900003FFDEFE00FFFFF007FFBFFDFFEF0F03F5A
:10091000FDEFE00FF9FF003E79F9CF9EF0F01F3DAB
:10092000E7E01FF1FF0000000000000000000000F1
:10093000001F80FF007FFFFFFFFFFFFFFFFFFFE0C3
:100940001C007F007FFFFFFFFEB46D888D18E00064
:10095000001F007FFFFFFFFE95AD7DB577E0000033
:100960000F007FFFFFFFFEA5AD9D8D19E000000683
:10097000007FFFFFFFFEB5ADEDB57EE0000000009B
:100980000001800000000000000000000380000063
:100990000000000000000007C00000000000000090
:1009A000000007C00000000000000000000FC000B1
:1009B00000000000000000001FE000000000000038
:1009C0000000001FE00000000000000000003FE009
:1009D0000000000000000000003FF00000000000E8
:1009E000000000007FF0000000000000001FF87F02
:1009F000F0000000000000003FFE7FF0000000005B
:100A00000000003FFF7FF0000000000000001FFF1B
:100A1000FBE0000000000000000FFFF9FFC0000035
:100A2000000000000FFFF9FFF800000000000007C1
:100A3000FFF1FFFF00000000000003FC73FFFF80D8
:100A4000000000000001FE3FFFFF800000000000EA
:100A500000FF1E0FFF000000000000007FFE1FFCD3
:100A6000000000000000003FFFFFF8000000000051
:100A700000000FDFFFE0000000000000001F19FF72
:100A8000C0000000000000003F3CFF00000000002C
:100A90000000007E7CF800000000000000007FFEE7
:100AA0007C0000000000000000FFFFFC00000000D0
:100AB00000000000FFFFFE0000000000000000FF3B
:100AC000FFFE0000000000000001FFEFFE0000003C
:100AD0000000000001FFCFFE000000000000000346
:100AE000FF07FE0000000000000003FC07FE0000FE
:100AF000000000000003F003FE0000000000000002
:100B0000018000FE000000000000000000007E00E8
:100B10000000000000000000003E00000000000097
:100B2000000000000C000000000000078000FC0036
:100B30000003C0000000078001FC000003C00000AB
:100B400000078001FC000003C0000000078001E0F6
:100B50000000001E000000078001E00000001E00F1
:100B60007FE3F79FF9FDE7787BDFC0FFF7FFBFFD6D
:100B7000FDFF787BDFC0FFF7FFBFFDFDFF787BDF68
:100B8000C0F0F787BC3DE1FF787BDE00F0F787BC63
:100B90003DE1F0787BDE0000F787803DE1E0787B87
:100BA000DE007FF7879FFDE1E0787BDE00FFF787BF
:100BB000BFFDE1E0787BDE00F0F787BC3DE1E07847
:100BC0007BDE00F0F787BC3DE1E0787BDE00F0F7EC
:100BD00087BC3DE1E0787BDE00FFF7FFBFFDE1E091
:100BE0007FFBDFC0FFF7FFBFFDE1E07FFBDFC07CE5
:100BF000F3F39F3DE1E03E7BCFC00000000000002A
:100C00000000000000FFFFFFFFFFFFFFFFFFFFC02E
:100C1000FFFFFFFFFD68DB111A31C0FFFFFFFFFD83
:100C20002B5AFB6AEFC0FFFFFFFFFD4B5B3B1A3304
:100C3000C0FFFFFFFFFD6B5BDB6AFDC02200FF21F1
:100C400000003420A32B11241FBECFEFD1E2DEBF62
:100C5000CDBF00E00CBF12E0A0E0B2E0E6E7FEE5A9
:100C600000E00BBF02C007900D92A63DB107D9F777
:100C700025E0A6EDB2E001C01D92A731B207E1F771
:100C800016E0C2E2D6E000E006C021970109802FFD
:100C9000FE010E94F22DC132D10780E00807A9F7BA
:100CA0000E94B8200C942A2FABC908950895089586
:100CB000AF92BF92CF92DF92EF92FF920F931F936A
:100CC000CF93DF936C017B018B01040F151FEB01A8
:100CD0005E01AE18BF08C017D10759F06991D6015F
:100CE000ED91FC910190F081E02DC6011995892BC1
:100CF00079F7C501DF91CF911F910F91FF90EF9090
:100D0000DF90CF90BF90AF900895FC01538D448D3C
:100D1000252F30E0842F90E0821B930B541710F0A6
:100D2000CF96089501970895FC01918D828D9817B3
:100D300061F0A28DAE0FBF2FB11D5D968C91928D8B
:100D40009F5F9F73928F90E008958FEF9FEF0895BC
:100D5000FC01918D828D981731F0828DE80FF11D85
:100D6000858D90E008958FEF9FEF0895FC01918DA0
:100D7000228D892F90E0805C9F4F821B91098F7399
:100D8000992708958AE294E0F1DF21E0892B09F4A4
:100D900020E0822F0895FC01A48DA80FB92FB11D6A
:100DA000A35ABF4F2C91848D90E001968F739927A1
:100DB000848FA689B7892C93A089B1898C9183707F
:100DC00080648C93938D848D981306C00288F38978
:100DD000E02D80818F7D80830895EF92FF920F93A5
:100DE0001F93CF93DF93EC0181E0888F9B8D8C8DD7
:100DF00098131AC0E889F989808185FF15C09FB7CB
:100E0000F894EE89FF896083E889F989808183708D
:100E1000806480839FBF81E090E0DF91CF911F913C
:100E20000F91FF90EF900895F62E0B8D10E00F5F5D
:100E30001F4F0F731127E02E8C8D8E110BC00FB634
:100E400007FCFACFE889F989808185FFF5CFCE01CB
:100E5000A2DFF2CFEB8DEC0FFD2FF11DE35AFF4F18
:100E6000F0829FB7F8940B8FEA89FB8980818062BA
:100E7000D0CFCF93DF93EC01888D8823B1F0AA897E
:100E8000BB89E889F9898C9185FD03C0808186FD45
:100E90000CC00FB607FCF7CF8C9185FFF2CF808195
:100EA00085FFEDCFCE0177DFEACFDF91CF910895B7
:100EB00080E090E0892B21F065DF81110E94000025
:100EC00080E090E0892B49F080E090E0892B29F0C8
:100ED0000E94000081110E94000080E090E0892BB8
:100EE00049F080E090E0892B29F00E9400008111F8
:100EF0000E94000080E090E0892B49F080E090E0C3
:100F0000892B29F00E94000081110C9400000895A3
:100F1000282F30E0F901EC57F94F9491F901EA508C
:100F2000F94F44912A5A384FF9012491222309F4A8
:100F300035C0992311F191509231F8F4E92FF0E086
:100F40008827EA55F84F8F4F0C94F22DD707DB070F
:100F5000B807CF07D307BD07DE07E407E807EE07AA
:100F6000F207F607FC070008BD0704080A080E0888
:100F7000809180008F7780938000E22FF0E0EE0F69
:100F8000FF1FE45CF84FA591B4918FB7F894EC91F2
:100F9000611148C040954E234C938FBF08958091B6
:100FA00080008F7DE8CF80918000877FE4CF84B57B
:100FB0008F7784BDE2CF84B58F7DFBCF8091B00069
:100FC0008F778093B000D9CF8091B0008F7DF9CF1B
:100FD000809190008F7780939000CFCF8091900088
:100FE0008F7DF9CF80919000877FF5CF8091A00011
:100FF0008F778093A000C1CF8091A0008F7DF9CF23
:101000008091A000877FF5CF809120018F7780931A
:101010002001B3CF809120018F7DF9CF80912001F5
:10102000877FF5CF4E2BB8CFCF93DF9390E0FC01B5
:10103000EA50F94F24918A5A984FFC0184918823F1
:10104000D1F090E0880F991FFC01E653F94FA5916C
:10105000B491FC01E45CF84FC591D49161110EC0CC
:101060009FB7F8948C91E22FE0958E238C93288182
:10107000E223E8839FBFDF91CF9108958FB7F89463
:10108000EC91E22BEC938FBFF6CF90917B00977F92
:1010900090937B008653806480937C0080917A00DB
:1010A000806480937A0080917A0086FDFCCF8091E5
:1010B00078009091790008953FB7F8948091A60345
:1010C0009091A703A091A803B091A90326B5A89B6E
:1010D00005C02F3F19F00196A11DB11D3FBFBA2FCA
:1010E000A92F982F8827BC01CD01620F711D811D8A
:1010F000911D42E0660F771F881F991F4A95D1F70F
:1011000008958F929F92AF92BF92CF92DF92EF920B
:10111000FF924B015C01D0DF6B017C01CDDF6C19CC
:101120007D098E099F09683E734081059105B0F3E2
:1011300021E0821A9108A108B10888EEC80E83E068
:10114000D81EE11CF11C81149104A104B10431F7F3
:10115000FF90EF90DF90CF90BF90AF909F908F90D7
:101160000895EF92FF920F931F93CF93DF93EC01BB
:10117000EC80FD806E157F050CF070C057FF04C039
:10118000240F351F50E040E08E819F81FA01E20F6D
:10119000F31F8E179F071CF49C01241B350B12169E
:1011A00013060CF05BC0922F842F8695869586954A
:1011B0008E9DD0018F9DB00D11246A0F7B1FAF8DC6
:1011C000B8A1A60FB71F477049F188E0841B482FCC
:1011D000682F70E0FB01E458F94FE491281708F0FC
:1011E00063C0621B71092FEF30E002C0359527956F
:1011F0006A95E2F7E2230130110539F0B0F10230CF
:10120000110561F58C91E82702C08C91E82BEC93D5
:10121000941720F12C813D81A20FB31FE92FE41B0D
:10122000E83078F00230110521F58E2F9C919095D1
:101230009C932C813D81A20FB31F88508830B0F75A
:10124000E770EE2359F0F0E0EC58F94FE4910130EB
:101250001105F9F010F10230110519F1DF91CF916C
:101260001F910F91FF90EF900895E0958C91E823E6
:10127000CECF81E00115110509F480E081959E2F04
:101280008C932C813D81A20FB31F98509830C0F7EA
:10129000D7CF8C91E82BEC93E1CFE0958C91E823AC
:1012A000FACF8C91E827F7CF0130110509F4ADCFC3
:1012B000E0F20230110509F4A5CFAE0DBF1DAECF8F
:1012C0000F931F93CF93DF9377FF04C0260F371F31
:1012D00070E060E0DC011496CD91DC91FB01E20F3F
:1012E000F31FCE17DF071CF49E01261B370B1216C7
:1012F00013064CF5FA0157FD3796A3E0F595E795EF
:10130000AA95E1F7EC9FD001ED9FB00DFC9FB00DC9
:1013100011246A0F7B1FDC015F96ED91FC91E60FB3
:10132000F71F4770552781E090E001C0880F4A956C
:10133000EAF7482F0130110559F0A8F02E0F3F1F92
:1013400002301105E1F0DF91CF911F910F910895C7
:101350002E0F3F1FE217F307B1F38191DF011197C1
:10136000842B8C93F7CF80952E0F3F1FE217F30746
:1013700051F39191DF01119798239C93F7CFE217D6
:10138000F30709F38191DF01119784278C93F7CF3D
:101390000F931F93FA01DC0156964C9156974230F9
:1013A000E1F0433091F1413059F514964D915C9143
:1013B000DA01AE1BBF0BFD01E21BF30B77FD0AC088
:1013C000DC0116964D915C91641775071CF4AB0116
:1013D000BF0176DF1F910F91089514964D915C9196
:1013E000DA01A61BB70BBD0161507109DC0116962D
:1013F0004D915C91DA01AE1BBF0BFD01E21BF30BBB
:1014000077FDE8CFAF01ADDEE5CF16964D915C914B
:10141000DA01A61BB70BBD0161507109CFCF0F9345
:101420001F93FA01DC0156964C9156974230A1F079
:10143000433081F1413011F514964D915C91DA0100
:10144000AE1BBF0BFD013197F7FD03C0AB01BF0120
:1014500088DE1F910F91089514964D915C91DA01E9
:10146000A61BB70BBD01DC0116964D915C91DA010C
:10147000AE1BBF0BFD013197621B730BF7FDE9CF6C
:10148000DC0116964D915C91E417F50714F7AF0156
:1014900017DFDFCF16964D915C91DA01A61BB70BD3
:1014A000BD01621B730BD0CFFC0177FD64C080854A
:1014B0009185681779070CF05EC057FD5CC0828586
:1014C0009385481759070CF056C086898230B1F0D1
:1014D000833029F1813041F484819581841B950BFF
:1014E000AB01BC01615071092130310509F108F4EB
:1014F00043C02230310509F463C008958481958189
:10150000DC01A61BB70BBD01615071098681978173
:10151000DC01A41BB50BAD0141505109E5CF86811B
:101520009781861B970BBA01AC0141505109DCCF62
:10153000CA0157FD0796A3E095958795AA95E1F70F
:10154000A481B5818A9F90018B9F300D9A9F300DA9
:101550001124620F731F078CF0A1E02DE60FF71F17
:101560004770552721E030E001C0220F4A95EAF785
:101570008081822B80830895CA0157FD079633E04E
:10158000959587953A95E1F7A481B5818A9F900159
:101590008B9F300D9A9F300D1124620F731F078CA3
:1015A000F0A1E02DE60FF71F4770552781E090E08E
:1015B00001C0880F4A95EAF7809590818923DACF98
:1015C000CA0157FD079623E0959587952A95E1F77F
:1015D000A481B5818A9F90018B9F300D9A9F300D19
:1015E0001124620F731F078CF0A1E02DE60FF71F87
:1015F0004770552721E030E001C0220F4A95EAF7F5
:1016000080818227B7CF08958EBD00000DB407FEFC
:10161000FDCF8EB508958CBD9DBD08950895FC0144
:101620006370668B8481958126813781613039F0C2
:10163000633029F091878087338722870895318727
:1016400020879387828708952F923F924F925F92CF
:101650006F927F928F929F92AF92BF92CF92DF92C2
:10166000EF92FF920F931F93CF93DF93CDB7DEB727
:101670006A970FB6F894DEBF0FBECDBF9A8F898FE1
:101680007A8369834A01D22E18870F833701BC2CD5
:10169000DC0159962D913C915A972115310509F09D
:1016A00015C118968D919C911997681779070CF0C0
:1016B000D7C11A968D919C91481759070CF0D0C14B
:1016C0004C2C512CB6E0CB9E600D711D11247C87F3
:1016D0006B87161617060CF0C3C1EA2DF0E0FA87E7
:1016E000E98793E0EE0FFF1F9A95E1F7F88BEF87FC
:1016F000CF01840F951F181619060CF0B1C1A98DE2
:10170000BA8D58968C91811104C0BFEABD1508F4BA
:10171000D394A98DBA8DED91FC9111970284F38534
:10172000E02DCD011995B5E0DB9EC0011124E981C2
:10173000FA81FC83EB83312C212C9C012C583E4FE9
:10174000388F2F8B4A2D50E05E8B4D8BEF89F88DB3
:10175000E20DF31D44919E828D82D12CC12C6981B2
:101760007A81620D731D7A8B698B842F90E09C8B3C
:101770008B8BE98DFA8DA081B18140FF82C0F1E0B1
:10178000BF126FC0AF126DC01C96ED91FC912F81FE
:101790003885A4014C0D5D1D69897A89898D9A8DE2
:1017A0001995EB89FC89F595E7954E2F5FEFC51AE2
:1017B000D50A6D817E818D899E89680F791F7E8310
:1017C0006D8398E0C916D10481F6AFEF2A1A3A0A60
:1017D000EB81FC81E40DF51DFC83EB83F5E02F1616
:1017E000310409F0B3CF2F81388526153705B9F0BC
:1017F000A98DBA8DED91FC91B1E0BB1257C0AB122F
:1018000055C069817A816B5F7F4F0088F189E02D37
:10181000830128E030E0A401898D9A8D1995A98D66
:10182000BA8DED91FC9111970688F789E02DCD01D5
:101830006A960FB6F894DEBF0FBECDBFDF91CF9191
:101840001F910F91FF90EF90DF90CF90BF90AF90DE
:101850009F908F907F906F905F904F903F902F90D0
:1018600019941E96ED91FC91EF80F88409851A85F4
:1018700092014D815E816B817C81898D9A8D199554
:1018800090CF2F8138852615370509F48ACF31E0AE
:10189000B31207C0A31205C01C96ED91FC919301F1
:1018A00078CF1E96ED91FC917301E0CF6B857C851E
:1018B000641975090684F785E02D73010F85188971
:1018C0009201A401898D9A8D1995A9CFF9013496B9
:1018D0009491329745915491D91AB7E0DB9E400D0F
:1018E000511D1124F901259134913C8B2B8BFA0168
:1018F00025903490FA013296749031963491398B58
:10190000329664903196449041E04C1518F04A1597
:1019100008F07FC0662D062C000C770B7C836B8350
:10192000842D042C000C990B9E838D83A98DBA8D78
:10193000ED91FC9111970284F385E02DCD0119956D
:10194000512CD12CC12CEA2DF0E0FA87E9872B2D00
:1019500030E03C872B87A401440D511D47FC5A956C
:10196000588F4F8B69817A81660D711D67FC7A955E
:101970007E876D877989C71608F051CF2C2D30E00E
:101980004D815E81420F531FA985BA854A9FC001D0
:101990004B9F900D5A9F900D1124FC01E80DF91DED
:1019A000F88BEF87852D612C4F89588D420F531F7F
:1019B0005E8B4D8B671408F050C044244394480E4E
:1019C000877041F4C1010196EB89FC89E20DF31D9A
:1019D000D4901C01D7FE19C0A98DBA8DED91FC9150
:1019E000662D70E0B1E0BB1219C0AB1217C02D8597
:1019F0003E85620F731F0484F585E02D2F813885A5
:101A00004D895E89898D9A8D1995DD0C6394842D9D
:101A1000D1CF1E821D821C821B8288CF4B815C81AC
:101A2000640F751FAB85BC856A9FC0016B9F900DCD
:101A30007A9F900D112469817A81680F791F06843D
:101A4000F785E02DEF80F88409851A859D014F8583
:101A50005889898D9A8D1995D8CF570CC3948ACF00
:101A60006A960FB6F894DEBF0FBECDBFDF91CF915F
:101A70001F910F91FF90EF90DF90CF90BF90AF90AC
:101A80009F908F907F906F905F904F903F902F909E
:101A900008958F929F92AF92CF92EF92FF920F9301
:101AA0001F93CF93DF93EC01262F898D9A8D00979A
:101AB00009F050C06A30D1F41D861C868D8948E03B
:101AC000849F900111248E859F85820F931F9F878D
:101AD0008E8781E090E0DF91CF911F910F91FF9071
:101AE000EF90CF90AF909F908F9008956D3089F3D5
:101AF000CC88AD888F898823C1F08C859D8536E0A0
:101B0000C39E800D911D112448855985481759079A
:101B100064F44E855F851D861C8638E0A39EC00157
:101B20001124840F951F9F878E87EA88FB88088978
:101B300019894E855F856C857D85CE0185DD2C8973
:101B40008C859D8546E0249F800D911D11249D87E5
:101B50008C87BFCF6A3069F41D861C86FC013696DF
:101B6000E4912D898E859F85E29F800D911D112422
:101B7000AECF6D3009F4ADCFFC01349634916317CC
:101B800008F4A7CF3196E491E61708F4A2CFFC0140
:101B9000329685909490462F431B342F47E0349F14
:101BA000800C911C1124F401329634913196E49109
:101BB0003323A1F1EE2391F1CC88F4013596E49121
:101BC000AD884F89442301F10E2E000CFF0BE30F6B
:101BD000F11DCE9EA001CF9E500D11246C857D85F8
:101BE000460F571F68857985641775076CF44E8515
:101BF0005F851D861C86FC013696E491AE9E400DE5
:101C0000511D11245F874E87EA88FB88088919894E
:101C10004E855F856C857D85CE0116DDF401349699
:101C2000E4912C898C859D85E29F800D911D112466
:101C30008ECF6F927F928F929F92AF92BF92CF92F0
:101C4000DF92EF92FF920F931F93CF93DF93EC01FC
:101C50006B015A0139014801E881F9810284F38559
:101C6000E02D1995E881F9810288F389E02D87013B
:101C70009301A501B601CE011995A501480D591D85
:101C800041505109E881F9810288F389E02D9301DF
:101C9000B601CE011995E881F9810088F189E02D1E
:101CA0009401A501B601CE011995C60CD71CB60149
:101CB00061507109E881F9810088F189E02D940172
:101CC000A501CE011995E881F9810688F789E02DF3
:101CD000CE01DF91CF911F910F91FF90EF90DF9098
:101CE000CF90BF90AF909F908F907F906F901994FE
:101CF0006F927F928F929F92AF92BF92CF92DF921C
:101D0000EF92FF920F931F93CF93DF935C01EB0150
:101D10006A01490138018701DC01ED91FC916217EC
:101D2000730719F5641675062CF0962D872D3A0168
:101D3000C92ED82E9601261937092F5F3F4F048CE4
:101D4000F58DE02DA301BE01C5011995DF91CF915D
:101D50001F910F91FF90EF90DF90CF90BF90AF90C9
:101D60009F908F907F906F9008954615570591F43E
:101D70002617370724F0892D4B01C22FD82F9E013B
:101D8000281939092F5F3F4F068CF78DE02DA601EA
:101D9000B401DACF0284F385E02D1995D501ED91D8
:101DA000FC910488F589E02D83019401A601BE0110
:101DB000C5011995D501ED91FC910688F789E02DB3
:101DC000C501DF91CF911F910F91FF90EF90DF90B0
:101DD000CF90BF90AF909F908F907F906F9019940D
:101DE000EF92FF920F931F93DC011A960D911C91B5
:101DF0001B9718962D913C911997ED91FC9100A09D
:101E0000F1A1E02D7B0150E040E070E060E0199529
:101E10001F910F91FF90EF9008954F925F926F92F4
:101E20007F928F929F92AF92BF92CF92DF92EF926A
:101E3000FF920F931F93CF93DF936C012B015A01F5
:101E400039014801DC01ED91FC910284F385E02D1C
:101E50001995E201640C751CD601ED91FC91C61533
:101E6000D7055CF40088F189E02D87019401A50174
:101E7000BE01C60119952196EFCF0688F789E02D9E
:101E8000C601DF91CF911F910F91FF90EF90DF90EE
:101E9000CF90BF90AF909F908F907F906F905F900A
:101EA0004F9019948F929F92AF92BF92CF92DF92F0
:101EB000EF92FF920F931F93CF93DF93EC015B019F
:101EC0004A016901E881F9810284F385E02D1995C1
:101ED00095012C0D3D1D21503109E881F9810488BF
:101EE000F589E02D78018401A401B501CE01199591
:101EF000E881F9810688F789E02DCE01DF91CF9145
:101F00001F910F91FF90EF90DF90CF90BF90AF9017
:101F10009F908F9019948F929F92AF92BF92CF9281
:101F2000DF92EF92FF920F931F93CF93DF93EC0119
:101F30005B014A0169017801E881F9810284F38536
:101F4000E02D1995C80CD91C860101501109E881B2
:101F5000F9810488F589E02D9501A401B501CE0130
:101F60001995E881F9810688F789E02DCE01DF9186
:101F7000CF911F910F91FF90EF90DF90CF90BF9086
:101F8000AF909F908F901994EF92FF920F931F93B1
:101F9000DC01ED91FC9100A0F1A1E02D19951F91BC
:101FA0000F91FF90EF9008950F931F93DC01ED9137
:101FB000FC91068CF78DE02D19951F910F910895D6
:101FC0000F931F93DC01ED91FC91048CF58DE02DB6
:101FD00019951F910F910895DC01ED91FC910084FA
:101FE000F185E02D19943F924F925F926F927F920C
:101FF0008F929F92AF92BF92CF92DF92EF92FF9219
:102000000F931F93CF93DF9300D01F92CDB7DEB70E
:102010005C013B016A014901280187E0480E511C1F
:1020200093E0559447949A95E1F7CA018E0D9F1D50
:102030009A838983F12CE12C312C1C821B828B81A9
:102040009C8187709927330C892B61F4EB81FC818B
:1020500083E0F595E7958A95E1F7EE0DFF1DE80D14
:10206000F91D349037FE09C021E030E0A6016B81F4
:102070007C81660D771DC501AFDF8B819C81019648
:102080009C838B8308171907D1F69FEFC91AD90AC9
:10209000E40CF51C89819A81C816D90671F60F9057
:1020A0000F900F900F90DF91CF911F910F91FF90A4
:1020B000EF90DF90CF90BF90AF909F908F907F90E8
:1020C0006F905F904F903F9008952F923F924F9264
:1020D0005F926F927F928F929F92AF92BF92CF92B8
:1020E000DF92EF92FF920F931F93CF93DF9300D075
:1020F00000D0CDB7DEB73C016A013E832D83FC8260
:10210000EB825801A41AB50AB7FE03C0B194A1949A
:10211000B1088D809E80861A970A97FE03C091941D
:10212000819491088A149B045CF0902F812F0D817B
:102130001E819D838E839C2D8D2D6B01692F782FA1
:102140000C151D055CF09D818E817E836D83692F4A
:10215000782F902F812F8601C92ED82E1601201A94
:10216000310A2B012D813E81421A530A57FE03C0CA
:10217000519441945108710137FE03C03FEFE31AB7
:10218000F30AF594E7948D819E81861797075CF595
:10219000A1E0B0E0BA83A983C016D1064CF1D30107
:1021A000ED91FC910484F585E02D2B813C81A80103
:1021B0006D817E818A149B041CF04D815E81B80183
:1021C000C3011995E418F508F7FE0AC02D813E8178
:1021D00089819A81280F391F3E832D83E20CF31CDD
:1021E0000F5F1F4FD9CF2FEF3FEF3A832983D4CF13
:1021F00026960FB6F894DEBF0FBECDBFDF91CF910C
:102200001F910F91FF90EF90DF90CF90BF90AF9014
:102210009F908F907F906F905F904F903F902F9006
:102220000895089585ED8093BC008091BC0084FDE5
:10223000FCCF1092B103089520915A03260F332743
:10224000331F21323105ECF42091B103FC0190E001
:1022500080E0243069F082E00895A0915A03219132
:10226000AC01465C5C4FA40FB52FB11D2C930196B9
:10227000861798F380915A03680F60935A0380E0A1
:10228000089581E00895E091B3038091B203E817C7
:1022900030F4F0E0E65EFC4F808190E008958FEF2F
:1022A0009FEF08959091B3038091B2032FEF3FEF1A
:1022B000981748F4E92FF0E0E65EFC4F208130E00B
:1022C0009F5F9093B303C90108958091B2039091E9
:1022D000B303891B990B0895CF92DF92EF92FF927F
:1022E0000F931F93CF93DF937C01CB018A01209141
:1022F0002904222389F0EB016B01C40ED51ECC15F5
:10230000DD0561F06991D701ED91FC910190F081BB
:10231000E02DC7011995F3CF642F8EDFC801DF913F
:10232000CF911F910F91FF90EF90DF90CF90089584
:10233000CF93DF931F92CDB7DEB769832091290435
:102340002223F9F020912604203258F021E030E0D9
:10235000FC013383228390E080E00F90DF91CF91E6
:10236000089580912704E82FF0E0E650FD4F998111
:1023700090838F5F809327048093260481E090E010
:10238000ECCF61E0CE01019657DFF8CF2091260413
:1023900081E0213208F044C08091B1038111FCCF6B
:1023A0008091280492E09093B10391E09093B00360
:1023B0009FEF90937D0310929F0320939E03AAEFBB
:1023C000B2E0EEE7F3E090E0291331C01092A003F1
:1023D0009091A003880F892B8093A0038091AF0375
:1023E000813049F51092AF038091A0038093BB0028
:1023F0008091BC0083FDF8CF85EC8093BC00809178
:10240000B1038230E1F380917D038F3FB1F0809181
:102410007D038032A1F080917D03803391F084E0D0
:1024200010922704109226041092290408953D91D9
:1024300031939F5FC9CF85EEE0CF80E0F1CF82E09E
:10244000EFCF83E0EDCFFF920F931F93CF93DF93F6
:10245000F82ED92FC62F8091F0049091F1040097A7
:1024600009F450C02091F40431E030932904209302
:1024700028041092270410922604DC01ED91FC91AF
:102480000190F081E02D60E019950F2D1D2FD1E016
:10249000FF24F394C1508091F0049091F104CF3F58
:1024A00059F1D032C0F072DF8091F0049091F104C4
:1024B0002091F404F0922904209328041092270418
:1024C00010922604DC01ED91FC910190F081E02D49
:1024D00060E01995D1E08091F0049091F104F80149
:1024E0006491DC01ED91FC910190F081E02D199552
:1024F000DF5F0F5F1F4FCECFDF91CF911F910F9105
:10250000FF9044CFE0910005F0910105908180910A
:1025100006058095892380830F2D1D2FC15008F457
:1025200037C0F80184912091EE043091EF04232B01
:1025300021F06AD80F5F1F4FF1CF28E030E040E86C
:10254000E091FC04F091FD0490910405582F542370
:10255000D9F05081952B9083E091FE04F091FF0417
:10256000908150910505952B9083E091FE04F091A8
:10257000FF04508190910505909595239083469591
:1025800021503109E9F6D6CF508190959523E3CFBC
:10259000DF91CF911F910F91FF9008951F93CF93DB
:1025A000DF93EC018D8D9E8D009719F1162F29A1D7
:1025B00031E03093290420932804109227041092CC
:1025C0002604DC01ED91FC910190F081E02D60E0AA
:1025D00019958D8D9E8DDC01ED91FC910190F0811E
:1025E000E02D612F19958D8D9E8DDF91CF911F91DB
:1025F000CDCEADA5BEA59C918BA9809589238C934A
:102600008B8D9C8D892B31F0862FDF91CF911F917F
:102610000C94040B28E030E080E8A9A5BAA599A99C
:10262000462F4823C1F04C91942B9C93ABA5BCA59D
:102630009C914AA9942B9C93ABA5BCA54C919AA9BB
:10264000909594239C9386952150310931F7DF9121
:10265000CF911F9108954C9190959423E6CFEF92DE
:10266000FF920F931F93CF93DF938091F00490918B
:10267000F104892B09F490C02091080530910905D7
:1026800040910A0550910B0560E074E284EF90E000
:102690000E94D02D20513109410951095695479585
:1026A000379527952093B80065E08CE39CE0CBDE5E
:1026B0006091D704615083ED94E070DF2091D904DC
:1026C0003091DA04C901079697FD079623E09595A6
:1026D00087952A95E1F72091D7043091D804829FFD
:1026E0008001839F100D929F100D1124C091F20460
:1026F000D091F3048091F0049091F1040C0F1D1F10
:10270000009709F487C02091F40431E03093290444
:10271000209328041092270410922604DC01ED91E6
:10272000FC910190F081E02D60E41995FF24F39471
:10273000EE24E3948091F0049091F1040C171D07AE
:1027400009F441C0BFE1BF15C8F420DE8091F00458
:102750009091F1042091F404E0922904209328043C
:102760001092270410922604DC01ED91FC91019057
:10277000F081E02D60E41995FF24F3948091F0043A
:102780009091F1046991DC01ED91FC910190F0814F
:10279000E02D1995F394CECF8091EE049091EF0443
:1027A000892B31F080911105909112050E940B0B3D
:1027B000E0910205F09103059081809107058095D5
:1027C0008923808371CFE2DD8091F0049091F10440
:1027D000892B09F460C020910C0530910D054091C2
:1027E0000E0550910F0560E074E284EF90E00E94C6
:1027F000D02D2051310941095109569547953795FA
:1028000027952093B800DF91CF911F910F91FF90F2
:10281000EF900895E0910005F0910105808190917D
:102820000605892B80830C171D0771F28991209171
:10283000EE043091EF04232B19F00E94040BF3CF28
:1028400028E030E040E8E091FC04F091FD04909134
:102850000405582F5423D9F05081952B9083E09193
:10286000FE04F091FF04908150910505952B908313
:10287000E091FE04F091FF04508190910505909540
:1028800095239083469521503109E9F6CCCF5081AC
:1028900090959523E3CFE0910205F09103058081A7
:1028A00090910705892B8083AECF1F93CF93DF9341
:1028B000EC01162F8D8D9E8D892BA9F12DA93EA996
:1028C0004FA958AD60E074E284EF90E00E94D02DF3
:1028D000205131094109510956954795379527955A
:1028E0002093B80066EA111167EACE0157DE8D8D9C
:1028F0009E8D892B41F129AD3AAD4BAD5CAD60E0C9
:1029000074E284EF90E00E94D02D205131094109FA
:10291000510956954795379527952093B800DF9133
:10292000CF911F9108958B8D9C8D892B21F08EADB9
:102930009FAD0E940B0BEFA5F8A990818CA9809503
:1029400089238083CFCFEFA5F8A980819CA9892B0B
:102950008083E5CF90E080E00895AF92BF92CF9260
:10296000DF92EF92FF920F931F93CF93DF936B0150
:102970007C01EA01590120E030E048E451E40E9482
:10298000162C87FF17C0E8E0EE2EF12C00E110E0D6
:1029900024E631E0A501BE0183ED94E024DBDF9164
:1029A000CF911F910F91FF90EF90DF90CF90BF904C
:1029B000AF9055CE20E030E048EC51E4C701B601BD
:1029C0000E94162C87FF08C078E0E72EF12C00E16A
:1029D00010E024E531E0DECF20E030E046E152E4D3
:1029E000C701B6010E94162C87FF08C068E0E62EDA
:1029F000F12C00E110E024E431E0CCCF20E030E025
:102A000048E452E4C701B6010E94162C87FF08C0B3
:102A100058E0E52EF12C00E110E024E331E0BACFDC
:102A200020E030E04AE752E4C701B6010E94162CCC
:102A300087FF08C048E0E42EF12C00E110E024E21A
:102A400031E0A8CF20E030E046E952E4C701B6010A
:102A50000E94162C87FF08C038E0E32EF12C00E11D
:102A600010E024E131E096CF20E030E04FEA52E47C
:102A7000C701B6010E94162C87FF08C028E0E22E8D
:102A8000F12C00E110E024E031E084CF20E030E0E0
:102A90004EEB52E4C701B6010E94162C87FF08C016
:102AA00098E0E92EF12C00E110E024EF30E072CF45
:102AB00020E030E04EEB52E4C701B6010E94652DE4
:102AC00087FD12C020E030E048EC52E4C701B601B7
:102AD0000E94162C181644F088E0E82EF12C00E134
:102AE00010E024EE30E056CFDF91CF911F910F918F
:102AF000FF90EF90DF90CF90BF90AF900895FC01D2
:102B0000329760E0E730F10568F48827E557FA4E20
:102B10008F4F0C94F22DA015AA15B415BE15C8152B
:102B2000D215DC1585E10E94880761E084E10E94EE
:102B3000880781E090E09093B5038093B4030895F3
:102B400083E10E94880761E082E10E94880782E0B9
:102B500090E0F1CF81E10E94880761E080E10E946E
:102B6000880783E090E0E7CF8FE00E94880761E06C
:102B70008EE00E94880784E090E0DDCF8DE00E9427
:102B8000880761E08CE00E94880785E090E0D3CF61
:102B90008BE00E94880761E08AE00E94880786E057
:102BA00090E0C9CF89E00E94880761E088E00E9438
:102BB000880787E090E0BFCF87E00E94880761E048
:102BC00086E00E94880788E090E0B5CFE091B403EA
:102BD000F091B503E930F10508F0D4C423E333E301
:102BE00043E251E48827E850FA4E8F4F0C94F22DBF
:102BF000011696161F17A4172918AE183319B819FD
:102C00003D1A6091C6037091C7038091C8039091EB
:102C1000C9030E94652D18161CF481E090E06FCF67
:102C200023E333E343E251E46091CA037091CB03A1
:102C30008091CC039091CD030E94652D18161CF451
:102C400082E090E0ECCF23E333E343E251E4609190
:102C5000CE037091CF038091D0039091D1030E9455
:102C6000652D18161CF483E090E0D9CF23E333E3FD
:102C700043E251E46091D2037091D3038091D40375
:102C80009091D5030E94652D18161CF484E090E005
:102C9000C6CF23E333E343E251E46091D60370915E
:102CA000D7038091D8039091D9030E94652D1816FF
:102CB0001CF485E090E0B3CF23E333E343E251E437
:102CC0006091DA037091DB038091DC039091DD0366
:102CD0000E94652D18161CF486E090E0A0CF23E337
:102CE00033E343E251E46091DE037091DF038091AE
:102CF000E0039091E1030E94652D18161CF487E013
:102D000090E08DCF23E333E343E251E46091E203AB
:102D10007091E3038091E4039091E5030E94652D97
:102D200018160CF02FC488E090E079CF6091CA03A8
:102D30007091CB038091CC039091CD030E94652DBF
:102D400018160CF47DCF23E333E343E251E46091A2
:102D5000CE037091CF038091D0039091D1030E9454
:102D6000652D18160CF47FCF23E333E343E251E4DF
:102D70006091D2037091D3038091D4039091D503D5
:102D80000E94652D18160CF481CF23E333E343E250
:102D900051E46091D6037091D7038091D80390914C
:102DA000D9030E94652D18160CF483CF23E333E377
:102DB00043E251E46091DA037091DB038091DC031C
:102DC0009091DD030E94652D18160CF485CF23E346
:102DD00033E343E251E46091DE037091DF038091BD
:102DE000E0039091E1030E94652D18160CF487CF43
:102DF00023E333E343E251E46091E2037091E303A0
:102E00008091E4039091E5030E94652D18160CF45F
:102E10008ACF23E333E343E251E46091C603709128
:102E2000C7038091C8039091C9030E94652D1816AD
:102E30000CF4F3CE1092B5031092B4030895609190
:102E4000CE037091CF038091D0039091D1030E9463
:102E5000652D18160CF407CF23E333E343E251E466
:102E60006091D2037091D3038091D4039091D503E4
:102E70000E94652D18160CF409CF23E333E343E2D7
:102E800051E46091D6037091D7038091D80390915B
:102E9000D9030E94652D18160CF40BCF23E333E3FE
:102EA00043E251E46091DA037091DB038091DC032B
:102EB0009091DD030E94652D18160CF40DCF23E3CD
:102EC00033E343E251E46091DE037091DF038091CC
:102ED000E0039091E1030E94652D18160CF40FCFCA
:102EE00023E333E343E251E46091E2037091E303AF
:102EF0008091E4039091E5030E94652D18160CF46F
:102F000012CF23E333E343E251E46091C6037091AF
:102F1000C7038091C8039091C9030E94652D1816BC
:102F20000CF47BCE23E333E343E251E46091CA0324
:102F30007091CB038091CC039091CD030E94652DBD
:102F400018160CF077CF7CCE6091D2037091D3032A
:102F50008091D4039091D5030E94652D18160CF42E
:102F600095CE23E333E343E251E46091D6037091BD
:102F7000D7038091D8039091D9030E94652D18162C
:102F80000CF497CE23E333E343E251E46091DA0398
:102F90007091DB038091DC039091DD030E94652D2D
:102FA00018160CF499CE23E333E343E251E4609125
:102FB000DE037091DF038091E0039091E1030E94B2
:102FC000652D18160CF49BCE23E333E343E251E462
:102FD0006091E2037091E3038091E4039091E50333
:102FE0000E94652D18160CF49ECE23E333E343E2D2
:102FF00051E46091C6037091C7038091C80390911A
:10300000C9030E94652D18160CF407CE23E333E3A1
:1030100043E251E46091CA037091CB038091CC03E9
:103020009091CD030E94652D18160CF409CE23E370
:1030300033E343E251E46091CE037091CF0380917A
:10304000D0039091D1030E94652D18160CF0F2CE9A
:103050000ACE6091D6037091D7038091D8039091E6
:10306000D9030E94652D18160CF423CE23E333E315
:1030700043E251E46091DA037091DB038091DC0359
:103080009091DD030E94652D18160CF425CE23E3E4
:1030900033E343E251E46091DE037091DF038091FA
:1030A000E0039091E1030E94652D18160CF427CEE1
:1030B00023E333E343E251E46091E2037091E303DD
:1030C0008091E4039091E5030E94652D18160CF49D
:1030D0002ACE23E333E343E251E46091C6037091C7
:1030E000C7038091C8039091C9030E94652D1816EB
:1030F0000CF493CD23E333E343E251E46091CA033C
:103100007091CB038091CC039091CD030E94652DEB
:1031100018160CF495CD23E333E343E251E46091B8
:10312000CE037091CF038091D0039091D1030E9480
:10313000652D18160CF497CD23E333E343E251E4F5
:103140006091D2037091D3038091D4039091D50301
:103150000E94652D18160CF06DCE98CD6091DA03A3
:103160007091DB038091DC039091DD030E94652D5B
:1031700018160CF4B1CD23E333E343E251E460913C
:10318000DE037091DF038091E0039091E1030E94E0
:10319000652D18160CF4B3CD23E333E343E251E479
:1031A0006091E2037091E3038091E4039091E50361
:1031B0000E94652D18160CF4B6CD23E333E343E2E9
:1031C00051E46091C6037091C7038091C803909148
:1031D000C9030E94652D18160CF41FCD23E333E3B9
:1031E00043E251E46091CA037091CB038091CC0318
:1031F0009091CD030E94652D18160CF421CD23E388
:1032000033E343E251E46091CE037091CF038091A8
:10321000D0039091D1030E94652D18160CF423CD94
:1032200023E333E343E251E46091D2037091D3038B
:103230008091D4039091D5030E94652D18160CF44B
:1032400025CD23E333E343E251E46091D60370914B
:10325000D7038091D8039091D9030E94652D181649
:103260000CF0E8CD26CD6091DE037091DF038091F4
:10327000E0039091E1030E94652D18160CF43FCDF8
:1032800023E333E343E251E46091E2037091E3030B
:103290008091E4039091E5030E94652D18160CF4CB
:1032A00042CD23E333E343E251E46091C6037091DE
:1032B000C7038091C8039091C9030E94652D181619
:1032C0000CF4ABCC23E333E343E251E46091CA0353
:1032D0007091CB038091CC039091CD030E94652D1A
:1032E00018160CF4ADCC23E333E343E251E46091D0
:1032F000CE037091CF038091D0039091D1030E94AF
:10330000652D18160CF4AFCC23E333E343E251E40C
:103310006091D2037091D3038091D4039091D5032F
:103320000E94652D18160CF4B1CC23E333E343E27D
:1033300051E46091D6037091D7038091D8039091A6
:10334000D9030E94652D18160CF4B3CC23E333E3A4
:1033500043E251E46091DA037091DB038091DC0376
:103360009091DD030E94652D18160CF063CDB4CC4E
:103370006091E2037091E3038091E4039091E5038F
:103380000E94652D18160CF4CECC23E333E343E200
:1033900051E46091C6037091C7038091C803909176
:1033A000C9030E94652D18160CF437CC23E333E3D0
:1033B00043E251E46091CA037091CB038091CC0346
:1033C0009091CD030E94652D18160CF439CC23E39F
:1033D00033E343E251E46091CE037091CF038091D7
:1033E000D0039091D1030E94652D18160CF43BCCAC
:1033F00023E333E343E251E46091D2037091D303BA
:103400008091D4039091D5030E94652D18160CF479
:103410003DCC23E333E343E251E46091D603709162
:10342000D7038091D8039091D9030E94652D181677
:103430000CF43FCC23E333E343E251E46091DA033D
:103440007091DB038091DC039091DD030E94652D78
:1034500018160CF441CC23E333E343E251E46091CA
:10346000DE037091DF038091E0039091E1030E94FD
:10347000652D18160CF0DECC42CC6091C60370911D
:10348000C7038091C8039091C9030E94652D181647
:103490000CF4C3CB23E333E343E251E46091CA036A
:1034A0007091CB038091CC039091CD030E94652D48
:1034B00018160CF4C5CB23E333E343E251E46091E7
:1034C000CE037091CF038091D0039091D1030E94DD
:1034D000652D18160CF4C7CB23E333E343E251E424
:1034E0006091D2037091D3038091D4039091D5035E
:1034F0000E94652D18160CF4C9CB23E333E343E295
:1035000051E46091D6037091D7038091D8039091D4
:10351000D9030E94652D18160CF4CBCB23E333E3BB
:1035200043E251E46091DA037091DB038091DC03A4
:103530009091DD030E94652D18160CF4CDCB23E38A
:1035400033E343E251E46091DE037091DF03809145
:10355000E0039091E1030E94652D18160CF4CFCB87
:1035600023E333E343E251E46091E2037091E30328
:103570008091E4039091E5030E94652D18160CF0EC
:1035800059CCD1CB08952091D9043091DA04C901E6
:10359000079697FD079623E0959587952A95E1F77D
:1035A0002091D7043091D804829FA001839F500DB1
:1035B000929F500D112470E060E08091F204909190
:1035C000F3040C94232F0E941F2FFB010190002075
:1035D000E9F73197AF01461B570BDC01ED91FC91E8
:1035E0000280F381E02D19948F929F92AF92BF9247
:1035F000EF92FF920F931F93CF93DF93CDB7DEB778
:10360000A1970FB6F894DEBF0FBECDBF7C01FA01C3
:10361000CB0119A2223008F42AE08E010F5D1F4F62
:10362000822E912CB12CA12CBF01A50194010E94E6
:10363000D02DF901CA016A3004F5605DD8016E939E
:103640008D01232B242B252B79F790E080E0109718
:1036500019F0BD01C701B9DFA1960FB6F894DEBF1E
:103660000FBECDBFDF91CF911F910F91FF90EF90D3
:10367000BF90AF909F908F900895695CDFCFCF92FD
:10368000DF92EF92FF920F931F93CF93DF936B0123
:10369000770FEE08FF08F7FE1EC0EC01E881F98104
:1036A0000190F081E02D6DE219958C01442755279A
:1036B000BA014C195D096E097F092AE0CE0194DF39
:1036C000800F911FDF91CF911F910F91FF90EF908D
:1036D000DF90CF9008952AE0B701A601DF91CF9146
:1036E0001F910F91FF90EF90DF90CF907DCF4F9281
:1036F0005F926F927F928F929F92AF92BF92CF9282
:10370000DF92EF92FF926B017C01AC019B010E9462
:10371000CC2D66E572E081111AC046015701E8948C
:10372000B7F82FEF3FEF4FE75FE7C501B4010E9405
:10373000CC2D811124C02FEF3FEF4FE75FE7C5018C
:10374000B4010E94162C1816D4F46AE572E08AE2DD
:1037500094E03BDF7C0162E672E08AE294E035DFD0
:103760008E0D9F1DFF90EF90DF90CF90BF90AF9098
:103770009F908F907F906F905F904F9008952FEF64
:103780003FEF4FE75FE4C701B6010E94652D1816B1
:103790001CF46EE572E0DBCF2FEF3FEF4FE75FECFD
:1037A000C701B6010E94162C87FDF3CF20E030E060
:1037B000A901C701B6010E94162CB12CA12C87FFCC
:1037C0000AC06DE28AE294E00E94ED065C01F7FA1D
:1037D000F094F7F8F0942AE037ED43EA5BE3C70191
:1037E000B6010E94B22B2B013C010E94872C6B0179
:1037F0007C010E94B32C9B01AC01C301B2010E9469
:10380000B12B2B013C012AE0B701A6018AE294E02A
:10381000EBDE7C01EA0CFB1C6EE28AE294E00E9483
:10382000ED06E80EF91E20E030E040E251E4C3016D
:10383000B2010E94692D2B013C010E94872C4B0193
:10384000B12CA12C2AE0B501A4018AE294E0CCDEDF
:10385000E80EF91EC501B4010E94B32C9B01AC0116
:10386000C301B2010E94B12B20E030E040E251E4FC
:103870000E94692D0E94872CAB0170E060E02AE075
:103880008AE294E0B1DEE80EF91E65CFCF93DF93B4
:10389000BC018AE294E0F3DEEC0162E672E08AE2C7
:1038A00094E093DE8C0F9D1FDF91CF9108952F92AE
:1038B0003F924F925F926F927F928F929F92AF92C0
:1038C000BF92CF92DF92EF92FF920F931F93CF930D
:1038D000DF9300D0CDB7DEB7898386EBE82E83E097
:1038E000F82E86ED92E09B838A8306EE13E096E045
:1038F000C92E94E0D92E26ECA22E23E0B22E36E17A
:10390000832E34E0932E312C212CF1013197E730B6
:10391000F10568F48827E057F34E8F4F0C94F22D91
:10392000BF1DC11DC71DC91DD31DD51DDB1D60E0F9
:1039300085E00E94880760E084E00E94880760E0DC
:1039400083E00E948807F60111821082F80110823C
:10395000118212821382F501108211821282138267
:1039600086E30E944508F401918380838FDF65E040
:1039700070E080E090E00E94810887E30E944508A3
:10398000F6019183808382DFF40160817181072ECB
:10399000000C880B990B0E94B52C23E333E343E51D
:1039A00050E40E94692D20E030EC4FE754E40E947F
:1039B0001A2C23E333E343E550E40E941A2C2AE94E
:1039C00039E949E95EE30E94692D2AE939E949E1CB
:1039D0005EE30E94B12B2AE037ED43E25CE30E94F4
:1039E0001A2C2CEE31E548E35FE30E94B12BF8017D
:1039F0006083718382839383F60160817181072ED6
:103A0000000C880B990B0E94B52C23E333E343E5AC
:103A100050E40E94692D20E030EC4FE754E40E940E
:103A20001A2C20E030E040E751E40E94692D20E0AC
:103A300030E040E450E40E941A2CF5016083718369
:103A40008283938365E070E080E090E00E948108CB
:103A5000F981FF2309F4F6C02FB7F8946091A2030F
:103A60007091A3038091A4039091A5032FBF409070
:103A7000F6025090F7026090F8027090F902641913
:103A80007509860997090E94B32C20E03AEB4BE5B3
:103A90005AE40E941A2C2B013C0120E030E04AE756
:103AA00054E4F80160817181828193810E94692DC3
:103AB0009B01AC01C301B2010E94692D9B01AC01C5
:103AC000EA81FB8160817181828193810E94B22BA6
:103AD000EA81FB8160837183828393832FB7F8949B
:103AE0008091A2039091A303A091A403B091A50398
:103AF0002FBF8093F6029093F702A093F802B09341
:103B0000F902F801408051806280738020E030E04B
:103B1000A901C301B2010E94652D18160CF04DC019
:103B200020E030E849E855E4EA81FB816081718159
:103B3000828193810E941A2C20E030E048EC52E40C
:103B40000E94692D2B013C01F70160817181072ED4
:103B5000000C880B990B0E94B52C9B01AC01C30192
:103B6000B2010E94B22B0E94822CF7017183608304
:103B7000EA81FB81108211821282138263C061E0AC
:103B8000D7CE60E085E00E94880761E0D5CE61E095
:103B9000F9CF60E085E00E94880760E084E00E9441
:103BA000880761E0CDCE61E0F5CF60E085E00E945E
:103BB000880761E0F3CF61E0F9CF20E030E0A901B0
:103BC000C301B2010E94162C87FF32C0EA81FB813B
:103BD0006081718182819381905820E030E849E8CA
:103BE00055E40E941A2C20E030E048EC52E40E9498
:103BF000692D2B013C01F7018081918164E670E021
:103C0000681B790B072E000C880B990B0E94B52CB2
:103C10009B01AC01C301B2010E94B22B0E94822C15
:103C200084E690E0861B970BF70191838083A0CFF9
:103C300020E030E0A901C301B2010E94162C8823C4
:103C400009F496CFFFEF2F1A3F0A82E0E80EF11C2D
:103C5000EA81FB813496FB83EA830C5F1F4FF2E01D
:103C6000CF0ED11C84E0A80EB11C92E0890E911CED
:103C7000E8E02E16310409F048CE0F900F900F9017
:103C8000DF91CF911F910F91FF90EF90DF90CF9038
:103C9000BF90AF909F908F907F906F905F904F906C
:103CA0003F902F9008950F931F93CF93DF93EC01D4
:103CB0008CDC8C0162E672E0CE0187DC800F911F04
:103CC000DF91CF911F910F9108957FCC1F920F929A
:103CD0000FB60F9211240BB60F922F933F934F9371
:103CE0005F936F937F938F939F93AF93BF93EF9364
:103CF000FF938AE294E00E94CB06FF91EF91BF917F
:103D0000AF919F918F917F916F915F914F913F9173
:103D10002F910F900BBE0F900FBE0F901F90189514
:103D20001F920F920FB60F9211240BB60F922F9382
:103D30008F939F93EF93FF93E0913A04F0913B04AC
:103D40008081E0914004F091410482FD1DC090818A
:103D5000809143048F5F8F7320914404821741F058
:103D6000E0914304F0E0E65DFB4F958F80934304C0
:103D7000FF91EF919F918F912F910F900BBE0F901C
:103D80000FBE0F901F9018958081F2CF1F920F9257
:103D90000FB60F9211242F933F938F939F93AF935E
:103DA000BF938091A2039091A303A091A403B0912B
:103DB000A5033091A10323E0230F2D3758F5019679
:103DC000A11DB11D2093A1038093A2039093A3038F
:103DD000A093A403B093A5038091A6039091A70399
:103DE000A091A803B091A9030196A11DB11D8093D4
:103DF000A6039093A703A093A803B093A903BF9130
:103E0000AF919F918F913F912F910F900FBE0F9087
:103E10001F90189526E8230F0296A11DB11DD2CF41
:103E20001F920F920FB60F9211240BB60F922F9381
:103E30003F934F935F936F937F938F939F93AF9332
:103E4000BF93EF93FF938091B900887F803609F488
:103E50004DC008F040C0883209F4A9C028F580316F
:103E600009F49DC0C8F4882309F4FBC0883009F424
:103E700096C0FF91EF91BF91AF919F918F917F91EC
:103E80006F915F914F913F912F910F900BBE0F90CB
:103E90000FBE0F901F901895883109F488C08032AA
:103EA00041F780937D0314C0803409F49DC040F431
:103EB0008033B9F38833E9F680937D0385ECB0C095
:103EC000803509F485C0883509F496C0883489F6B0
:103ED0000E941211CECF883909F48CC038F588378A
:103EE00029F050F4883611F0803719F683E080937A
:103EF000B10310927C0357C0883809F47BC0803925
:103F000019F0803809F0B5CF80917C03803208F039
:103F100071C0E0917C0381E08E0F80937C038091DF
:103F2000BB00F0E0E45AFC4F80833DC0803B39F099
:103F3000E0F4803A09F479C0883A09F09ACF84E035
:103F40008093B10310925B0310925A03E091AD038A
:103F5000F091AE03199580915A0381110FC081E051
:103F600080935A0310923A0309C0803C09F4A6CF0B
:103F7000883C09F4A3CF883B09F07BCFE0915B0339
:103F800081E08E0F80935B03F0E0E65CFC4F808164
:103F90008093BB0090915B0380915A0329C080916C
:103FA000A0038093BB0085EC8093BC0062CF90910E
:103FB0009F0380919E03981758F5E0919F0381E03D
:103FC0008E0F80939F03F0E0E258FC4F8081E9CF91
:103FD000E0919F0381E08E0F80939F038091BB004F
:103FE000F0E0E258FC4F808390919F0380919E0304
:103FF0009817C8F285E8D8CFE0919F0381E08E0F33
:1040000080939F038091BB00F0E0E258FC4F8083D7
:104010008091B00381115CCF81E08093AF0384EA8B
:104020008093BC001092B10324CF85EC8093BC0038
:104030001092B10380917C03803230F4E0917C03D4
:10404000F0E0E45AFC4F108260917C0370E0E09154
:10405000AB03F091AC038CE593E0199510927C03CF
:1040600008CF10927D0334CFEAE2F4E0138212828B
:1040700048EE53E060E070E04483558366837783C5
:104080008AE092E09183808385EC90E09587848735
:1040900084EC90E09787868780EC90E0918B808B12
:1040A00081EC90E0938B828B82EC90E0958B848BFB
:1040B00086EC90E0978B868B118E128E138E148E69
:1040C000A7ECB4E013961C921E92129714964D938F
:1040D0005D936D937C9317978CE192E011969C937E
:1040E0008E93E3EDF4E01382128220E830E0358312
:1040F000248380E490E097838683318720879387A9
:104100008287168A158614861786168681E0858B27
:10411000848B2FEF3FEF338B228B318B208B878B60
:10412000108E128E118E8EE292E091838083148E17
:10413000138EB68FA58F10A2178E8FEF84A385A341
:1041400086A387A386E180A780E89AE1A6E0B0E095
:1041500085AB96ABA7ABB0AF80EA96E8A1E0B0E044
:1041600081AF92AFA3AFB4AF80E586AF17AE08952D
:10417000CF93DF93CDB7DEB764970FB6F894DEBF69
:104180000FBECDBF789484B5826084BD84B5816054
:1041900084BD85B5826085BD85B5816085BD809112
:1041A0006E00816080936E0010928100809181008A
:1041B0008260809381008091810081608093810082
:1041C000809180008160809380008091B100846044
:1041D0008093B1008091B00081608093B0008091A5
:1041E0009100826080939100809191008160809322
:1041F0009100809190008160809390008091A10057
:1042000082608093A1008091A10081608093A100D1
:104210008091A00081608093A00080912101826044
:1042200080932101809121018160809321018091FF
:10423000200181608093200180917A0084608093C6
:104240007A0080917A00826080937A0080917A006F
:10425000816080937A0080917A00806880937A00F0
:104260001092C100E0913A04F0913B0482E0808317
:10427000E0913604F09137041082E0913804F09117
:1042800039048FEC808310924204E0913E04F09157
:104290003F0486E08083E0913C04F0913D048081FE
:1042A00080618083E0913C04F0913D0480818860CE
:1042B0008083E0913C04F0913D048081806880839C
:1042C000E0913C04F0913D0480818F7D808380915A
:1042D000F2049091F304892B31F155D98091D904DE
:1042E0009091DA046091D7047091D80481329105DD
:1042F0000CF062C3AC014052510957FF02C04F5F3E
:104300005F4F559547956357710977FF02C06F5FFF
:104310007F4F75956795E0E2EE2EF12C03E710E0F4
:104320002CE937E061C32091D9043091DA04C90146
:10433000079697FD079603E0959587950A95E1F70F
:104340002091D7043091D804AC01429FC001439F13
:10435000900D529F900D11240E94FA2D9093F3041A
:104360008093F204892B09F0B8CF0DD961E085E183
:104370000E94140861E084E10E94140861E083E176
:104380000E94140861E082E10E94140861E081E16A
:104390000E94140861E080E10E94140861E08FE04F
:1043A0000E94140861E08EE00E94140861E08DE034
:1043B0000E94140861E08CE00E94140861E08BE028
:1043C0000E94140861E08AE00E94140861E089E01C
:1043D0000E94140861E088E00E94140861E087E010
:1043E0000E94140861E086E00E94140861E085E004
:1043F0000E94140861E084E00E94140861E083E0F8
:104400000E94140860E082E00E94140860E084E1E9
:104410000E94880760E085E10E94880760E082E1F1
:104420000E94880760E083E10E94880760E080E1E5
:104430000E94880760E081E10E94880760E08EE0CA
:104440000E94880760E08FE00E94880760E08CE0AF
:104450000E94880760E08DE00E94880760E08AE0A3
:104460000E94880760E08BE00E94880760E088E097
:104470000E94880760E089E00E94880760E086E08B
:104480000E94880760E087E00E94880760E085E07E
:104490000E94880760E084E00E94880760E083E073
:1044A0000E94880780E003DA26ECA22E23E0B22ED9
:1044B00006EB13E01A821982D5016D917D918D91E1
:1044C0009D915D0120E030E040E450E40E941A2C10
:1044D0006B017C0165E672E08AE294E0F6DBC701DD
:1044E000B60105D92DE232EB45E550E4C701B6012E
:1044F0000E94652D87FD84C420EA36EA4EE550E42B
:10450000C701B6010E94162C18160CF479C426E6D1
:1045100036E644ED51E4C701B6010E94692D23E35C
:1045200033E341EB52E40E94B12B2B013C016AE6DC
:1045300072E08AE294E0B7DB20EA36EA4EE550E426
:10454000C701B6010E94652D1816FCF42FE83AEA5F
:1045500042E650E4C701B6010E94162C1816ACF0D2
:1045600020E030E04AEF52E4C701B6010E94692D15
:104570002DEC3CE847ED53E40E94B12B2B013C01AC
:1045800060E772E08AE294E08EDB2FE83AEA42E6E6
:1045900050E4C701B6010E94652D1816FCF421E114
:1045A0003AEA48E650E4C701B6010E94162C1816F4
:1045B000ACF020E030E045E153E4C701B6010E94D1
:1045C000692D26E636E041E054E40E94B12B2B0130
:1045D0003C0166E772E08AE294E065DB21E13AEAB9
:1045E00048E650E4C701B6010E94652D1816FCF498
:1045F00020E33DE04DE650E4C701B6010E94162CD1
:104600001816ACF020E030E04CEA53E4C701B601E4
:104610000E94692D20E030E249E954E40E94B12B68
:104620002B013C016CE772E08AE294E03CDB20E382
:104630003DE04DE650E4C701B6010E94652D181615
:10464000FCF420E030E040E750E4C701B6010E94EE
:10465000162C1816ACF020E030E845E653E4C7010C
:10466000B6010E94692D2AE939E348E454E40E9426
:10467000B12B2B013C0162E872E08AE294E013DB8B
:1046800020E030E040E750E4C701B6010E94652D0C
:104690001816FCF421E33EE74BE750E4C701B601EE
:1046A0000E94162C1816ACF02DEC3CEC4FED52E4A9
:1046B000C701B6010E94692D23E333EF43EB53E4B6
:1046C0000E94B12B2B013C0168E872E08AE294E081
:1046D000EADA21E33EE74BE750E4C701B6010E9466
:1046E000652D1816FCF425EB37E341E850E4C701CB
:1046F000B6010E94162C1816ACF02AE939E941EDF2
:1047000052E4C701B6010E94692D20E030E046EA7C
:1047100053E40E94B12B2B013C016EE872E08AE267
:1047200094E0C1DA25EB37E341E850E4C701B60174
:104730000E94652D87FD1EC028E539E344E850E45A
:10474000C701B6010E94162C87FF14C022E538E38A
:1047500045EB52E4C701B6010E94692D2AE939E50B
:1047600049E853E4FED72B013C0164E972E08AE298
:1047700094E099DA28E539E344E850E4C701B6014A
:104780000E94652D181634F4412C512C98EC692E9A
:1047900092E4792E6AE972E08AE294E096DAC30143
:1047A000B2010E94771BC301B2010E94822CF80162
:1047B000619371938F0163EA72E08AE294E085DA93
:1047C00049815A814F5F5F4F5A834983BA018AE218
:1047D00094E00E943F1B6CEB72E08AE294E075DA91
:1047E000F80132978081918151D889819A81089707
:1047F00009F062CE84E2282E312C0DE210E081E037
:1048000056D88091C6039091C703A091C803B09178
:10481000C903898B9A8BAB8BBC8B2DEC3CEC48E4A9
:1048200051E4BC01CD010E94652D181624F460E00E
:1048300085E10E9488074090CA035090CB036090A6
:10484000CC037090CD032DEC3CEC48E451E4C30163
:10485000B2010E94652D181624F460E083E10E94E5
:1048600088078090CE039090CF03A090D003B090A3
:10487000D1032DEC3CEC48E451E4C501B4010E94A5
:10488000652D181624F460E081E10E94880780916C
:10489000D2039091D303A091D403B091D50389831F
:1048A0009A83AB83BC832DEC3CEC48E451E4BC011F
:1048B000CD010E94652D181624F460E08FE00E945F
:1048C00088078091D6039091D703A091D803B09127
:1048D000D9038D839E83AF83B8872DEC3CEC48E4ED
:1048E00051E4BC01CD010E94652D181624F460E04E
:1048F0008DE00E9488078091DA039091DB03A091FC
:10490000DC03B091DD0389879A87AB87BC872DECE8
:104910003CEC48E451E4BC01CD010E94652D181621
:1049200024F460E08BE00E9488078091DE03909180
:10493000DF03A091E003B091E1038D879E87AF87ED
:10494000B88B2DEC3CEC48E451E4BC01CD010E9455
:10495000652D181624F460E089E00E948807C09055
:10496000E203D090E303E090E403F090E5032DEC44
:104970003CEC48E451E4C701B6010E94652D1816CD
:1049800024F460E087E00E948807E091B403F0918E
:10499000B503E930F10508F039C28827ED52FB4D27
:1049A0008F4F0C94F22D0427882AA42ABC2AD42ADB
:1049B000EE2A082B222B3C2BAC014054510957FF07
:1049C00002C04F5F5F4F559547956255710977FF5C
:1049D00002C06F5F7F4F75956795B0E4EB2EF12CA9
:1049E00002E510E02CE739E083ED94E00E94F30F3C
:1049F00082E08093F5048091F0049091F104892B7A
:104A000009F4FCC08DE38093F4041092B303109278
:104A1000B20310922704109226041092B10381E091
:104A20008093B0031092AF0361E084E10E94880795
:104A300061E085E10E9488078091B9008E7F8093B4
:104A4000B9008091B9008D7F8093B90088E480938C
:104A5000B80085E48093BC0086E596E09093AE03B1
:104A60008093AD0387E596E09093AC038093AB030E
:104A70008091FB0487FD1EC061E00E94140861E084
:104A80008091FB040E94880761E070E080E090E084
:104A90000E94810860E08091FB040E9488076AE020
:104AA00070E080E090E00E94810861E08091FB046A
:104AB0000E9488078091F0049091F104892B09F4F9
:104AC0005EC1209108053091090540910A05509179
:104AD0000B0560E074E284EF90E00E94D02D20513D
:104AE00031094109510956954795379527952093E6
:104AF000B80064E082EF96E00E9423126091D9042E
:104B0000615083ED94E00E94CE1264E08EEE96E058
:104B10000E9423128091F50464E1813009F460E180
:104B200083ED94E00E94CE1264E08AEE96E00E944B
:104B300023128FE8809310058091D7049091D804B8
:104B40008038910509F034C18091D9049091DA043C
:104B50008034910509F041C18091F504813009F458
:104B600025C18FEC8093100592E199836AED83ED66
:104B700094E00E94CE12698183ED94E00E94CE12EF
:104B800061E883ED94E00E94CE126091100583ED00
:104B900094E00E94CE1269ED83ED94E00E94CE1263
:104BA0008091F50461EF813009F462E283ED94E0D5
:104BB0000E94CE1266E084EE96E00E94231280915D
:104BC000F0049091F104892B09F410C120910C0597
:104BD00030910D0540910E0550910F0560E074E293
:104BE00084EF90E0DDD720513109410951095695F4
:104BF0004795379527952093B800B7CB61E0809112
:104C0000F9040E94140861E08091FA040E941408DB
:104C10008091F904082E000C990BFC01EA5AF84F18
:104C2000E491F0E0EE0FFF1FE45CF84F2591349122
:104C30003093010520930005FC01EA50F94FE491FF
:104C4000E09306058091FA04082E000C990BFC01F4
:104C5000EA5AF84FE491F0E0EE0FFF1FE45CF84FE2
:104C6000A591B491B0930305A0930205FC01EA500D
:104C7000F94FE491E09307058C91E82BEC93809138
:104C8000EE049091EF04892B09F436C05FB7598385
:104C9000F8948091AA03811127C0EBE8F7E0849192
:104CA000EBE2F7E09491E82FF0E0EE0FFF1FE65300
:104CB000F94FA591B491EC91E92321F461E085E3EA
:104CC0000E94880761E085E30E9414088CB580612A
:104CD0008CBD8CB580648CBD61E084E30E941408B7
:104CE00061E083E30E9414088091AA038F5F8093A0
:104CF000AA0389818FBFBCCE61E08091F7040E9436
:104D0000140861E08091F8040E9414088091F7046F
:104D1000082E000C990BFC01EA5AF84FE491F0E0E0
:104D2000EE0FFF1FE45CF84F259134913093FD04A2
:104D30002093FC04FC01EA50F94FE491E093040550
:104D40008091F804082E000C990BFC01EA5AF84FE8
:104D5000E491F0E0EE0FFF1FE45CF84FA591B491F1
:104D6000B093FF04A093FE04FC01EA50F94FE491D4
:104D7000E09305058C91E095E823EC9379CE809142
:104D8000EE049091EF04892B31F080911105909100
:104D900012050E940B0BE0910205F0910305908132
:104DA00080910705809589238083A3CE8FE9DACE91
:104DB00080369105A9F48091D9049091DA04409746
:104DC00091F48091F504813031F08FEA80931005E1
:104DD000A2E0A983CBCE80E1F9CFB2E0B983C6CE01
:104DE000E2E0E983C3CEF2E0F983C0CEE0910205B0
:104DF000F0910305808190910705892B8083B5CAC6
:104E0000412C512C320198CB0E94E61523E333E369
:104E100047E451E469897A898B899C8907D587FFA2
:104E20000BC08091B4039091B503019709F43DC480
:104E300061E085E10E94880723E333E347E451E41E
:104E4000C301B201F3D487FF0BC08091B4039091EA
:104E5000B503029709F433C461E083E10E94880737
:104E600023E333E347E451E4C501B401DFD487FF12
:104E70000BC08091B4039091B503039709F429C442
:104E800061E081E10E94880723E333E347E451E4D2
:104E900069817A818B819C81C9D487FF0BC0809105
:104EA000B4039091B503049709F41FC461E08FE047
:104EB0000E94880723E333E347E451E46D817E8158
:104EC0008F819885B3D487FF0BC08091B4039091F4
:104ED000B503059709F415C461E08DE00E948807C9
:104EE00023E333E347E451E469857A858B859C8528
:104EF0009DD487FF0BC08091B4039091B5030697B2
:104F000009F40BC461E08BE00E94880723E333E3DC
:104F100047E451E46D857E858F85988987D487FF26
:104F20000BC08091B4039091B503079709F401C4B5
:104F300061E089E00E94880723E333E347E451E41A
:104F4000C701B60173D487FF0AC08091B403909162
:104F5000B503089721F061E087E00E94880767EABF
:104F600072E08AE294E00E94651E8091160490919E
:104F700017040E94461C6DEA72E08AE294E00E94E7
:104F8000651E80910804909109040E94461C67EAFE
:104F900072E08AE294E00E94651E8091180490916C
:104FA00019040E94461C6DEA72E08AE294E00E94B5
:104FB000651E80910604909107040E94461C69EAD0
:104FC00072E08AE294E00E94651E6091E6037091AF
:104FD000E7038091E8039091E9030E94771B6FEA51
:104FE00072E08AE294E00E94651E6091EA0370918B
:104FF000EB038091EC039091ED030E94771B63EB30
:1050000072E08AE294E00E94651E6091C60370918E
:10501000C7038091C8039091C9030E94771B67EB77
:1050200072E08AE294E00E94651E6091CA0370916A
:10503000CB038091CC039091CD030E94771B80918C
:10504000B6039091B7030E94461CFF24F394F0929C
:10505000E704F092E804A1E0B0E0B093E604A09386
:10506000E504B093E404A093E3041092E0041092EA
:10507000DF041092E2041092E1046BEB72E083ED26
:1050800094E00E94531E0E942F136091B60370910A
:10509000B703072E000C880B990B67D430E020E093
:1050A0004BE050E00E94AD141092E0041092DF0437
:1050B000E9E0F0E0F093E204E093E1046091B603EC
:1050C0007091B70383ED94E00E943F1B0E942F1361
:1050D0006EEB72E083ED94E00E94651E0E942F1338
:1050E000F092E704F092E80441E050E05093E604C7
:1050F0004093E5045093E4044093E3048FE190E08F
:105100009093E0048093DF041092E2041092E10493
:1051100060EC72E083ED94E00E94531E0E942F1316
:105120006091B8037091B903072E000C880B990B9E
:105130001CD430E020E04AE250E00E94AD14AFE120
:10514000B0E0B093E004A093DF04E9E0F0E0F09376
:10515000E204E093E1046091B8037091B90383ED38
:1051600094E00E943F1B0E942F136EEB72E083EDD0
:1051700094E00E94651E0E942F13F092E704F092C3
:10518000E80441E050E05093E6044093E504509376
:10519000E4044093E3048EE390E09093E004809372
:1051A000DF041092E2041092E10463EC72E083EDFC
:1051B00094E00E94531E0E942F136091BA037091D5
:1051C000BB03072E000C880B990BCFD330E020E0F7
:1051D00049E450E00E94AD14AEE3B0E0B093E004C7
:1051E000A093DF04E9E0F0E0F093E204E093E1044F
:1051F0006091BA037091BB0383ED94E00E943F1B62
:105200000E942F136EEB72E083ED94E00E94651E06
:105210000E942F13F092E704F092E80441E050E07E
:105220005093E6044093E5045093E4044093E30470
:105230008DE590E09093E0048093DF041092E20407
:105240001092E10466EC72E083ED94E00E94531E3C
:105250000E942F136091BC037091BD03072E000CB8
:10526000880B990B82D330E020E048E650E00E94A2
:10527000AD14ADE5B0E0B093E004A093DF04E9E045
:10528000F0E0F093E204E093E1046091BC037091DC
:10529000BD0383ED94E00E943F1B0E942F136EEB31
:1052A00072E083ED94E00E94651E0E942F13F0923D
:1052B000E704F092E80441E050E05093E6044093A4
:1052C000E5045093E4044093E3041092E004109248
:1052D000DF043092E2042092E10469EC72E083ED95
:1052E00094E00E94531E0E942F136091BE037091A0
:1052F000BF03072E000C880B990B37D324E230E054
:105300004BE050E00E94AD141092E0041092DF04D4
:105310001093E2040093E1046091BE037091BF0317
:1053200083ED94E00E943F1B0E942F136EEB72E00E
:1053300083ED94E00E94651E0E942F13F092E70413
:10534000F092E80481E090E09093E6048093E50415
:105350009093E4048093E304AFE1B0E0B093E00401
:10536000A093DF043092E2042092E1046CEC72E03E
:1053700083ED94E00E94531E0E942F136091C0039E
:105380007091C103072E000C880B990BEED224E21A
:1053900030E04AE250E00E94AD14EFE1F0E0F0931B
:1053A000E004E093DF041093E2040093E1046091D1
:1053B000C0037091C10383ED94E00E943F1B0E94E3
:1053C0002F136EEB72E083ED94E00E94651E0E9445
:1053D0002F13F092E704F092E80441E050E050937C
:1053E000E6044093E5045093E4044093E3048EE321
:1053F00090E09093E0048093DF043092E2042092E6
:10540000E1046FEC72E083ED94E00E94531E0E9471
:105410002F136091C2037091C303072E000C880BF9
:10542000990BA3D224E230E049E450E00E94AD148D
:10543000AEE3B0E0B093E004A093DF041093E20485
:105440000093E1046091C2037091C30383ED94E083
:105450000E943F1B0E942F136EEB72E083ED94E0DD
:105460000E94651E0E942F13F092E704F092E80458
:10547000E1E0F0E0F093E604E093E504F093E40467
:10548000E093E3044DE550E05093E0044093DF04E3
:105490003092E2042092E10462ED72E083ED94E048
:1054A0000E94531E0E942F136091C4037091C50384
:1054B000072E000C880B990B58D224E230E048E606
:1054C00050E00E94AD148DE590E09093E00480934D
:1054D000DF041093E2040093E1046091C40370912F
:1054E000C50383ED94E00E943F1B0E942F136EEBD7
:1054F00072E083ED94E00E94651E0E942F1368EE17
:1055000073E080E090E00E9481080E94580777C90C
:1055100026E636E64AE151E469897A898B899C89D5
:1055200085D187FD06C08091B6039091B703069799
:105530005CF40E94E61560E084E10E94880761E067
:1055400085E10E94880762CC26E636E64AE151E40E
:10555000C301B2016BD187FD06C08091B803909161
:10556000B90306974CF40E94E61560E082E10E94C0
:10557000880761E083E1E5CF26E636E64AE151E4BB
:10558000C501B40153D187FD06C08091BA03909143
:10559000BB0306974CF40E94E61560E080E10E9490
:1055A000880761E081E1CDCF26E636E64AE151E4A5
:1055B00069817A818B819C8139D187FD06C0809178
:1055C000BC039091BD0306974CF40E94E61560E081
:1055D0008EE00E94880761E08FE0B3CF26E636E6D2
:1055E0004AE151E46D817E818F8198851FD187FDCD
:1055F00006C08091BE039091BF0306974CF40E94B1
:10560000E61560E08CE00E94880761E08DE099CFAC
:1056100026E636E64AE151E469857A858B859C85E4
:1056200005D187FD06C08091C0039091C103069704
:105630004CF40E94E61560E08AE00E94880761E071
:105640008BE07FCF26E636E64AE151E46D857E8524
:105650008F859889EBD087FD06C08091C203909119
:10566000C30306974CF40E94E61560E088E00E94B0
:10567000880761E089E065CF26E636E64AE151E435
:10568000C701B601D3D087FD07C08091C4039091B4
:10569000C50306970CF0BACB0E94E61560E086E0E1
:1056A0000E94880761E087E04CCF23E333E347E4BF
:1056B00051E4C301B201BAD087FDCECBD1CB23E3F5
:1056C00033E347E451E4C501B401B0D087FDD8CB42
:1056D000DBCB23E333E347E451E469817A818B81B7
:1056E0009C81A4D087FDE2CBE5CB23E333E347E401
:1056F00051E46D817E818F81988598D087FDECCBB8
:10570000EFCB23E333E347E451E469857A858B8566
:105710009C858CD087FDF6CBF9CB23E333E347E4BC
:1057200051E46D857E858F85988980D087FD00CC7A
:1057300003CC23E333E347E451E4C701B60176D059
:1057400087FD09CC0CCC8EE292E09093D404809338
:10575000D3048091F2049091F304009709F0E6C21B
:1057600008955058BB27AA270ED075C166D130F0D6
:105770006BD120F031F49F3F11F41EF45BC10EF4A5
:10578000E095E7FB51C1E92F77D180F3BA176207A3
:1057900073078407950718F071F49EF58FC10EF416
:1057A000E0950B2EBA2FA02D0B01B90190010C0131
:1057B000CA01A0011124FF27591B99F0593F50F449
:1057C000503E68F11A16F040A22F232F342F4427A1
:1057D000585FF3CF469537952795A795F040539599
:1057E000C9F77EF41F16BA0B620B730B840BBAF069
:1057F0009150A1F0FF0FBB1F661F771F881FC2F7D4
:105800000EC0BA0F621F731F841F48F487957795E7
:105810006795B795F7959E3F08F0B3CF9395880F9E
:1058200008F09927EE0F979587950895D9D008F439
:1058300081E008950CD00FC107D140F0FED030F0C8
:1058400021F45F3F19F0F0C0511139C1F3C014D1F8
:1058500098F39923C9F35523B1F3951B550BBB2737
:10586000AA2762177307840738F09F5F5F4F220FE4
:10587000331F441FAA1FA9F333D00E2E3AF0E0E8DD
:1058800030D091505040E695001CCAF729D0FE2F29
:1058900027D0660F771F881FBB1F261737074807BB
:1058A000AB07B0E809F0BB0B802DBF01FF27935871
:1058B0005F4F2AF09E3F510568F0B6C000C15F3FC0
:1058C000ECF3983EDCF3869577956795B795F79559
:1058D0009F5FC9F7880F911D9695879597F9089551
:1058E000E1E0660F771F881FBB1F621773078407ED
:1058F000BA0720F0621B730B840BBA0BEE1F88F7FC
:10590000E095089504D06894B111D9C00895BCD031
:1059100088F09F5790F0B92F9927B751A0F0D1F098
:10592000660F771F881F991F1AF0BA95C9F712C022
:10593000B13081F0C3D0B1E00895C0C0672F782F97
:105940008827B85F39F0B93FCCF38695779567958E
:10595000B395D9F73EF490958095709561957F4FFA
:105960008F4F9F4F0895E89409C097FB3EF49095A0
:105970008095709561957F4F8F4F9F4F9923A9F028
:10598000F92F96E9BB279395F695879577956795B7
:10599000B795F111F8CFFAF4BB0F11F460FF1BC0FB
:1059A0006F5F7F4F8F4F9F4F16C0882311F096E98E
:1059B00011C0772321F09EE8872F762F05C066233C
:1059C00071F096E8862F70E060E02AF09A95660FF5
:1059D000771F881FDAF7880F9695879597F90895AE
:1059E000990F0008550FAA0BE0E8FEEF16161706F0
:1059F000E807F907C0F012161306E407F50798F058
:105A0000621B730B840B950B39F40A2661F0232B70
:105A1000242B252B21F408950A2609F4A140A695EC
:105A20008FEF811D811D089597F99F6780E870E0D1
:105A300060E008959FEF80EC089500240A94161604
:105A4000170618060906089500240A94121613066C
:105A5000140605060895092E0394000C11F48823FA
:105A600052F0BB0F40F4BF2B11F460FF04C06F5F16
:105A70007F4F8F4F9F4F089557FD9058440F551FEC
:105A800059F05F3F71F04795880F97FB991F61F0C0
:105A90009F3F79F087950895121613061406551F37
:105AA000F2CF4695F1DF08C0161617061806991FA3
:105AB000F1CF86957105610508940895E894BB2798
:105AC00066277727CB0197F908958ADF08F48FEFCF
:105AD00008950BD0C0CFB1DF28F0B6DF18F09523C2
