:100000000C94C2050C94EA050C94EA050C94EA05DC
:100010000C94EA050C94EA050C94EA050C94EA05A4
:100020000C94EA050C94EA050C94EA050C94EA0594
:100030000C94EA050C94EA050C94EA050C94EA0584
:100040000C94D0160C94EA050C949E160C94781619
:100050000C94EA050C94EA050C94EA050C94EA0564
:100060000C941A170C94EA0500000000003E5B4F48
:100070005B3E3E6B4F6B3E1C3E7C3E1C183C7E3C08
:10008000181C577D571C1C5E7F5E1C00183C180016
:10009000FFE7C3E7FF0018241800FFE7DBE7FF30A6
:1000A000483A060E2629792926407F050507407F14
:1000B00005253F5A3CE73C5A7F3E1C1C08081C1C87
:1000C0003E7F14227F22145F5F005F5F06097F017D
:1000D0007F006689956A606060606094A2FFA29468
:1000E00008047E040810207E201008082A1C080836
:1000F0001C2A08081E101010100C1E0C1E0C303884
:100100003E3830060E3E0E06000000000000005F84
:1001100000000007000700147F147F14242A7F2AA0
:100120001223130864623649562050000807030062
:10013000001C2241000041221C002A1C7F1C2A08AE
:10014000083E080800807030000808080808000011
:1001500060600020100804023E5149453E00427F85
:10016000400072494949462141494D331814127FD4
:100170001027454545393C4A494931412111090774
:100180003649494936464949291E000014000000F5
:1001900040340000000814224114141414140041C7
:1001A00022140802015909063E415D594E7C121184
:1001B000127C7F494949363E414141227F414141BC
:1001C0003E7F494949417F090909013E4141517337
:1001D0007F0808087F00417F41002040413F017FA8
:1001E000081422417F404040407F021C027F7F0470
:1001F00008107F3E4141413E7F090909063E4151B9
:10020000215E7F09192946264949493203017F01A8
:10021000033F4040403F1F2040201F3F4038403FA9
:10022000631408146303047804036159494D4300BF
:100230007F4141410204081020004141417F0402F6
:10024000010204404040404000030708002054548D
:1002500078407F284444383844444428384444286B
:100260007F385454541800087E090218A4A49C78BE
:100270007F0804047800447D40002040403D007F1A
:100280001028440000417F40007C047804787C08FA
:100290000404783844444438FC18242418182424CE
:1002A00018FC7C08040408485454542404043F44B3
:1002B000243C4040207C1C2040201C3C4030403CE2
:1002C00044281028444C9090907C4464544C440042
:1002D00008364100000077000000413608000201A6
:1002E0000204023C2623263C1EA1A161123A404092
:1002F000207A38545455592155557941225454780F
:1003000042215554784020545579400C1E527212A7
:100310003955555559395454545939555454580030
:1003200000457C410002457D420001457C407D1234
:1003300011127DF0282528F07C5455450020545496
:100340007C547C0A097F4932494949323A44444441
:100350003A324A4848303A4141217A3A424020787C
:10036000009DA0A07D3D4242423D3D4040403D3C7D
:1003700024FF2424487E4943662B2FFC2F2BFF09A2
:1003800029F620C0887E0903205454794100004496
:100390007D413048484A32384040227A007A0A0A81
:1003A000727D0D19317D2629292F282629292926F4
:1003B00030484D4020380808080808080808382F39
:1003C00010C8ACBA2F102834FA00007B00000814C3
:1003D0002A142222142A14085500550055AA55AA99
:1003E00055AAFF55FF55FF000000FF00101010FF39
:1003F00000141414FF001010FF00FF1010F010F094
:10040000141414FC001414F700FF0000FF00FF1484
:1004100014F404FC141417101F10101F101F1414D0
:10042000141F00101010F0000000001F101010101A
:100430001F10101010F010000000FF10101010100E
:1004400010101010FF10000000FF140000FF00FF4C
:1004500000001F10170000FC04F4141417101714E8
:1004600014F404F40000FF00F7141414141414140A
:10047000F700F7141414171410101F101F1414147D
:10048000F4141010F010F000001F101F0000001FE7
:1004900014000000FC140000F010F01010FF10FF1A
:1004A000141414FF141010101F00000000F010FFAF
:1004B000FFFFFFFFF0F0F0F0F0FFFFFF0000000093
:1004C00000FFFF0F0F0F0F0F3844443844FC4A4A17
:1004D0004A347E02020606027E027E0263554941CC
:1004E000633844443C04407E201E2006027E020203
:1004F00099A5E7A5991C2A492A1C4C7201724C3017
:100500004A4D4D303048784830BC625A463D3E49ED
:100510004949007E0101017E2A2A2A2A2A44445F91
:10052000444440514A444040444A51400000FF0185
:1005300003E080FF000008086B6B08361236243693
:10054000060F090F060000181800000010100030F8
:1005500040FF0101001F01011E00191D1712003C80
:100560003C3C3C0000000000000103070F1F3F7FE0
:100570000080C0E0F0F8FCFE00000008000201006E
:10058000000304070000000000000000000000005D
:10059000240027002A00DB40A4A62EAF2000A1C81B
:1005A000D300408DAED580A8010204081020408001
:1005B00001020408102001020408102000000000BD
:1005C000250028002B00040404040404040402028F
:1005D00002020202030303030303000060000000A1
:1005E0000000000000000000000000E0000000002B
:1005F00000000000000000000001E000000000001A
:10060000000000000000000001F0000000000000F9
:100610000000000000000003F000000000000000E7
:1006200000000000000007F00000000000000000D3
:10063000000000000007F8000000000000000000BB
:10064000000000000FF800000003C0007E00000161
:10065000E0007F0FF800000003C000FE000001E092
:1006600000FFEFF800000003C000FE000001E00002
:10067000FFFFF800000003C000F00000000F007F43
:10068000FE7FC0000003C000F00000000F003FFE2E
:100690007FF83FF1FBCFFCFEF3BC3DEFE01FFE7F98
:1006A000FF7FFBFFDFFEFEFFBC3DEFE01FC6FFFF4D
:1006B0007FFBFFDFFEFEFFBC3DEFE00FE3C7FE78F0
:1006C0007BC3DE1EF0FFBC3DEF0007FF87FC787B9D
:1006D000C3DE1EF0F83C3DEF0001FFFFF0007BC3DE
:1006E000C01EF0F03C3DEF0001F37FE03FFBC3CFC5
:1006F000FEF0F03C3DEF0003E33F807FFBC3DFFEF5
:10070000F0F03C3DEF0007E73C00787BC3DE1EF0D5
:10071000F03C3DEF0007FFBE00787BC3DE1EF0F02B
:100720003C3DEF0007FFFE00787BC3DE1EF0F03C8F
:100730003DEF000FFFFE007FFBFFDFFEF0F03FFD0F
:10074000EFE00FFFFF007FFBFFDFFEF0F03FFDEF6C
:10075000E00FF9FF003E79F9CF9EF0F01F3DE7E092
:100760001FF1FF0000000000000000000000001F5B
:1007700080FF007FFFFFFFFFFFFFFFFFFFE01C0088
:100780007F007FFFFFFFFEB46D888D18E000001F23
:10079000007FFFFFFFFE95AD7DB577E000000F0005
:1007A0007FFFFFFFFEA5AD9D8D19E0000006007FD5
:1007B000FFFFFFFEB5ADEDB57EE0000000000001DB
:1007C0008000000000000000000003800000000026
:1007D000000000000007C000000000000000000052
:1007E00007C00000000000000000000FC000000073
:1007F0000000000000001FE00000000000000000FA
:10080000001FE00000000000000000003FE00000CA
:10081000000000000000003FF000000000000000A9
:1008200000007FF0000000000000001FF87FF000D3
:100830000000000000003FFE7FF00000000000000C
:10084000003FFF7FF0000000000000001FFFFBE002
:10085000000000000000000FFFF9FFC000000000D2
:1008600000000FFFF9FFF800000000000007FFF193
:10087000FFFF00000000000003FC73FFFF8000008A
:1008800000000001FE3FFFFF80000000000000FFAD
:100890001E0FFF000000000000007FFE1FFC000094
:1008A00000000000003FFFFFF80000000000000013
:1008B0000FDFFFE0000000000000001F19FFC00074
:1008C0000000000000003F3CFF00000000000000AE
:1008D000007E7CF800000000000000007FFE7C002D
:1008E00000000000000000FFFFFC0000000000000E
:1008F0000000FFFFFE0000000000000000FFFFFE00
:100900000000000000000001FFEFFE0000000000FA
:10091000000001FFCFFE0000000000000003FF0701
:10092000FE0000000000000003FC07FE00000000C5
:1009300000000003F003FE00000000000000018042
:1009400000FE000000000000000000007E0000002B
:10095000000000000000003E000000000000000059
:1009600000000C000000000000078000FC000003F5
:10097000C0000000078001FC000003C00000000769
:100980008001FC000003C0000000078001E00000BF
:10099000001E000000078001E00000001E007FE351
:1009A000F79FF9FDE7787BDFC0FFF7FFBFFDFDFF95
:1009B000787BDFC0FFF7FFBFFDFDFF787BDFC0F076
:1009C000F787BC3DE1FF787BDE00F0F787BC3DE1B7
:1009D000F0787BDE0000F787803DE1E0787BDE0089
:1009E0007FF7879FFDE1E0787BDE00FFF787BFFDA3
:1009F000E1E0787BDE00F0F787BC3DE1E0787BDE6C
:100A000000F0F787BC3DE1E0787BDE00F0F787BCC3
:100A10003DE1E0787BDE00FFF7FFBFFDE1E07FFB1B
:100A2000DFC0FFF7FFBFFDE1E07FFBDFC07CF3F33A
:100A30009F3DE1E03E7BCFC00000000000000000D1
:100A4000000000FFFFFFFFFFFFFFFFFFFFC0FFFFF2
:100A5000FFFFFD68DB111A31C0FFFFFFFFFD2B5ABE
:100A6000FB6AEFC0FFFFFFFFFD4B5B3B1A33C0FF8C
:100A7000FFFFFFFD6B5BDB6AFDC03FFFFF007FFFF9
:100A8000FF80C0000180800001F08E7381F08E73C2
:100A900081F08E7381F08E7381F08E7381F08E738E
:100AA00081F08E7381F08E7381F0800001F0C000C0
:100AB00001807FFFFF803FFFFF003FFFFF007FFFC0
:100AC000FF80C0000180800001F08E7001F08E7008
:100AD00001F08E7001F08E7001F08E7001F08E705A
:100AE00001F08E7001F08E7001F0800001F0C00006
:100AF00001807FFFFF803FFFFF003FFFFF007FFF80
:100B0000FF80C0000180800001F08E0001F08E00A7
:100B100001F08E0001F08E0001F08E0001F08E00D9
:100B200001F08E0001F08E0001F0800001F0C000A5
:100B300001807FFFFF803FFFFF003FFFFF007FFF3F
:100B4000FF80C0000180C00001F0C00001F0C000C3
:100B500001F0C00001F0C00001F0C00001F0C000D1
:100B600001F0C00001F0C00001F0C00001F0C000C1
:100B700001807FFFFF803FFFFF002200FF21000078
:100B80003918842011241FBECFEFD8E0DEBFCDBFBF
:100B900011E0A0E0B1E0EAE6F8E402C005900D92B1
:100BA000A038B107D9F723E0A0E8B1E001C01D9259
:100BB000AD38B207E1F715E0C1ECD5E004C02197EC
:100BC000FE010E94F122C03CD107C9F70E94AD1876
:100BD0000C9428240C940000089508950895AF9271
:100BE000BF92CF92DF92EF92FF920F931F93CF931A
:100BF000DF936C017B018B01040F151FEB015E017C
:100C0000AE18BF08C017D10759F06991D601ED9110
:100C1000FC910190F081E02DC6010995892B79F7AF
:100C2000C501DF91CF911F910F91FF90EF90DF9061
:100C3000CF90BF90AF900895FC01538D448D252F28
:100C400030E0842F90E0821B930B541710F0CF9666
:100C5000089501970895FC01918D828D981761F098
:100C6000A28DAE0FBF2FB11D5D968C91928D9F5FAF
:100C70009F73928F90E008958FEF9FEF0895FC018E
:100C8000918D828D981731F0828DE80FF11D858D41
:100C900090E008958FEF9FEF0895FC01918D228DD4
:100CA000892F90E0805C9F4F821B91098F73992759
:100CB000089580EA92E00E944D0621E0892B09F414
:100CC00020E0822F089580E090E0892B29F00E9497
:100CD000590681110C9400000895FC01A48DA80F01
:100CE000B92FB11DA35ABF4F2C91848D90E001966E
:100CF0008F739927848FA689B7892C93A089B1898E
:100D00008C91837080648C93938D848D981306C02E
:100D10000288F389E02D80818F7D80830895EF9292
:100D2000FF920F931F93CF93DF93EC0181E0888FA5
:100D30009B8D8C8D98131AC0E889F989808185FF75
:100D400015C09FB7F894EE89FF896083E889F98917
:100D500080818370806480839FBF81E090E0DF9119
:100D6000CF911F910F91FF90EF900895F62E0B8D6C
:100D700010E00F5F1F4F0F731127E02E8C8D8E1127
:100D80000CC00FB607FCFACFE889F989808185FF8E
:100D9000F5CFCE010E946D06F1CFEB8DEC0FFD2F4C
:100DA000F11DE35AFF4FF0829FB7F8940B8FEA8949
:100DB000FB8980818062CFCFCF93DF93EC01888D58
:100DC0008823B9F0AA89BB89E889F9898C9185FDC6
:100DD00003C0808186FD0DC00FB607FCF7CF8C9154
:100DE00085FFF2CF808185FFEDCFCE010E946D0699
:100DF000E9CFDF91CF91089590E0FC01E858FA4FD8
:100E00002491FC01E855FA4F3491FC01EA53FA4F62
:100E1000E491EE23C9F0222339F0233001F1A8F444
:100E2000213019F1223029F1F0E0EE0FFF1FE454D8
:100E3000FA4FA591B4918FB7F894EC91611126C047
:100E400030953E233C938FBF08952730A9F028307A
:100E5000C9F0243049F7809180008F7D03C08091D4
:100E600080008F7780938000DFCF84B58F7784BD3B
:100E7000DBCF84B58F7DFBCF8091B0008F778093DF
:100E8000B000D2CF8091B0008F7DF9CF3E2BDACF6A
:100E9000CF93DF9390E0FC01E855FA4F24918A53F9
:100EA0009A4FFC0184918823D1F090E0880F991F1C
:100EB000FC01E457FA4FA591B491FC01E454FA4FB8
:100EC000C591D49161110EC09FB7F8948C91E22F17
:100ED000E0958E238C932881E223E8839FBFDF91E6
:100EE000CF9108958FB7F894EC91E22BEC938FBFDC
:100EF000F6CF8E50806480937C0080917A0080646D
:100F000080937A0080917A0086FDFCCF80917800F2
:100F10009091790008953FB7F89480912C029091B8
:100F20002D02A0912E02B0912F0226B5A89B05C0DC
:100F30002F3F19F00196A11DB11D3FBFBA2FA92F58
:100F4000982F8827BC01CD01620F711D811D911D55
:100F500042E0660F771F881F991F4A95D1F70895C1
:100F60008F929F92AF92BF92CF92DF92EF92FF92B9
:100F70004B015C010E948B076B017C010E948B0777
:100F80006C197D098E099F09683E734081059105A2
:100F9000A8F321E0821A9108A108B10888EEC80ED2
:100FA00083E0D81EE11CF11C81149104A104B1045A
:100FB00029F7FF90EF90DF90CF90BF90AF909F9078
:100FC0008F900895EF92FF920F931F93CF93DF932B
:100FD000EC01EC80FD806E157F050CF070C057FFB2
:100FE00004C0240F351F50E040E08E819F81FA013C
:100FF000E20FF31F8E179F071CF49C01241B350B77
:10100000121613060CF05BC0922F842F86958695DE
:1010100086958E9DD0018F9DB00D11246A0F7B1F88
:10102000AF8DB8A1A60FB71F477049F188E0841BA8
:10103000482F682F70E0FB01E059FA4FE491281720
:1010400008F063C0621B71092FEF30E002C03595D4
:1010500027956A95E2F7E2230130110539F0B0F1E6
:101060000230110561F58C91E82702C08C91E82BC4
:10107000EC93941720F12C813D81A20FB31FE92F2F
:10108000E41BE83078F00230110521F58E2F9C9199
:1010900090959C932C813D81A20FB31F885088307E
:1010A000B0F7E770EE2359F0F0E0E859FA4FE49119
:1010B00001301105F9F010F10230110519F1DF913D
:1010C000CF911F910F91FF90EF900895E0958C9133
:1010D000E823CECF81E00115110509F480E0819568
:1010E0009E2F8C932C813D81A20FB31F9850983076
:1010F000C0F7D7CF8C91E82BEC93E1CFE0958C91A2
:10110000E823FACF8C91E827F7CF0130110509F4D5
:10111000ADCFE0F20230110509F4A5CFAE0DBF1D31
:10112000AECF0F931F93CF93DF9377FF04C0260FAB
:10113000371F70E060E0DC011496CD91DC91FB017B
:10114000E20FF31FCE17DF071CF49E01261B370B9F
:10115000121613064CF5FA0157FD3796A3E0F595E4
:10116000E795AA95E1F7EC9FD001ED9FB00DFC9FAC
:10117000B00D11246A0F7B1FDC015F96ED91FC918D
:10118000E60FF71F4770552781E090E001C0880FF8
:101190004A95EAF7482F0130110559F0A8F02E0FB3
:1011A0003F1F02301105E1F0DF91CF911F910F91A8
:1011B00008952E0F3F1FE217F307B1F38191DF016E
:1011C0001197842B8C93F7CF80952E0F3F1FE2173A
:1011D000F30751F39191DF01119798239C93F7CF77
:1011E000E217F30709F38191DF01119784278C93AC
:1011F000F7CF0F931F93FA01DC0156964C91569747
:101200004230E9F04330A1F1413061F514964D913F
:101210005C91DA01AE1BBF0BFD01E21BF30B77FD06
:101220000BC0DC0116964D915C916417750724F490
:10123000AB01BF010E9491081F910F910895149670
:101240004D915C91DA01A61BB70BBD01615071098C
:10125000DC0116964D915C91DA01AE1BBF0BFD01CE
:10126000E21BF30B77FDE8CFAF010E94E207E4CF6A
:1012700016964D915C91DA01A61BB70BBD0161502A
:101280007109CDCF0F931F93FA01DC0156964C9153
:1012900056974230A9F0433091F1413019F5149638
:1012A0004D915C91DA01AE1BBF0BFD013197F7FD4B
:1012B00004C0AB01BF010E94E2071F910F91089586
:1012C00014964D915C91DA01A61BB70BBD01DC01B0
:1012D00016964D915C91DA01AE1BBF0BFD01319763
:1012E000621B730BF7FDE9CFDC0116964D915C9103
:1012F000E417F50714F7AF010E949108DECF1696A8
:101300004D915C91DA01A61BB70BBD01621B730BFB
:10131000CECFFC0177FD64C0808591856817790781
:101320000CF05EC057FD5CC0828593854817590755
:101330000CF056C086898230B1F0833029F18130BB
:1013400041F484819581841B950BAB01BC016150F4
:1013500071092130310509F108F443C0223031050B
:1013600009F463C0089584819581DC01A61BB70B45
:10137000BD016150710986819781DC01A41BB50B09
:10138000AD0141505109E5CF86819781861B970BAE
:10139000BA01AC0141505109DCCFCA0157FD079693
:1013A000A3E095958795AA95E1F7A481B5818A9FD9
:1013B00090018B9F300D9A9F300D1124620F731F87
:1013C000078CF0A1E02DE60FF71F4770552721E0AD
:1013D00030E001C0220F4A95EAF78081822B80839A
:1013E0000895CA0157FD079633E0959587953A957C
:1013F000E1F7A481B5818A9F90018B9F300D9A9F60
:10140000300D1124620F731F078CF0A1E02DE60F41
:10141000F71F4770552781E090E001C0880F4A957B
:10142000EAF7809590818923DACFCA0157FD0796A4
:1014300023E0959587952A95E1F7A481B5818A9F48
:1014400090018B9F300D9A9F300D1124620F731FF6
:10145000078CF0A1E02DE60FF71F4770552721E01C
:1014600030E001C0220F4A95EAF780818227B7CF8A
:1014700008958EBD00000DB407FEFDCF8EB5089512
:101480008CBD9DBD08950895FC016370668B8481B9
:10149000958126813781613039F0633029F0918759
:1014A00080873387228708953187208793878287B3
:1014B00008952F923F924F925F926F927F928F92F8
:1014C0009F92AF92BF92CF92DF92EF92FF920F93D3
:1014D0001F93CF93DF93CDB7DEB76A970FB6F8941B
:1014E000DEBF0FBECDBF9A8F898F7A8369834A0191
:1014F000D22E18870F833701BC2CDC0159962D9111
:101500003C915A972115310509F015C118968D9116
:101510009C911997681779070CF0D7C11A968D918D
:101520009C91481759070CF0D0C14C2C512CB6E0B7
:10153000CB9E600D711D11247C876B8716161706D4
:101540000CF0C3C1EA2DF0E0FA87E98793E0EE0FD3
:10155000FF1F9A95E1F7F88BEF87CF01840F951F56
:10156000181619060CF0B1C1A98DBA8D58968C9138
:10157000811104C0BFEABD1508F4D394A98DBA8DBA
:10158000ED91FC9111970284F385E02DCD01099531
:10159000B5E0DB9EC0011124E981FA81FC83EB8375
:1015A000312C212C9C0128593F4F388F2F8B4A2DED
:1015B00050E05E8B4D8BEF89F88DE20DF31D449169
:1015C0009E828D82D12CC12C69817A81620D731D1E
:1015D0007A8B698B842F90E09C8B8B8BE98DFA8DB5
:1015E000A081B18140FF82C0F1E0BF126FC0AF1295
:1015F0006DC01C96ED91FC912F813885A4014C0D96
:101600005D1D69897A89898D9A8D0995EB89FC8997
:10161000F595E7954E2F5FEFC51AD50A6D817E814E
:101620008D899E89680F791F7E836D8398E0C91626
:10163000D10481F6AFEF2A1A3A0AEB81FC81E40D5E
:10164000F51DFC83EB83F5E02F16310409F0B3CFD1
:101650002F81388526153705B9F0A98DBA8DED9102
:10166000FC91B1E0BB1257C0AB1255C069817A81C1
:101670006B5F7F4F0088F189E02D830128E030E027
:10168000A401898D9A8D0995A98DBA8DED91FC9152
:1016900011970688F789E02DCD016A960FB6F89468
:1016A000DEBF0FBECDBFDF91CF911F910F91FF9095
:1016B000EF90DF90CF90BF90AF909F908F907F90F2
:1016C0006F905F904F903F902F9009941E96ED91F0
:1016D000FC91EF80F88409851A8592014D815E8125
:1016E0006B817C81898D9A8D099590CF2F8138856A
:1016F0002615370509F48ACF31E0B31207C0A312CB
:1017000005C01C96ED91FC91930178CF1E96ED914A
:10171000FC917301E0CF6B857C85641975090684A3
:10172000F785E02D73010F8518899201A401898D39
:101730009A8D0995A9CFF9013496949132974591E4
:101740005491D91AB7E0DB9E400D511D1124F901C7
:10175000259134913C8B2B8BFA0125903490FA0122
:101760003296749031963491398B329664903196DA
:10177000449041E04C1518F04A1508F07FC0662DE2
:10178000062C000C770B7C836B83842D042C000CBF
:10179000990B9E838D83A98DBA8DED91FC91119744
:1017A0000284F385E02DCD010995512CD12CC12C5B
:1017B000EA2DF0E0FA87E9872B2D30E03C872B8774
:1017C000A401440D511D47FC5A95588F4F8B6981D8
:1017D0007A81660D711D67FC7A957E876D877989A0
:1017E000C71608F051CF2C2D30E04D815E81420F9D
:1017F000531FA985BA854A9FC0014B9F900D5A9FE0
:10180000900D1124FC01E80DF91DF88BEF87852D53
:10181000612C4F89588D420F531F5E8B4D8B67147F
:1018200008F050C044244394480E877041F4C1012D
:101830000196EB89FC89E20DF31DD4901C01D7FEC3
:1018400019C0A98DBA8DED91FC91662D70E0B1E0C3
:10185000BB1219C0AB1217C02D853E85620F731FD6
:101860000484F585E02D2F8138854D895E89898D29
:101870009A8D0995DD0C6394842DD1CF1E821D8233
:101880001C821B8288CF4B815C81640F751FAB85E6
:10189000BC856A9FC0016B9F900D7A9F900D1124AB
:1018A00069817A81680F791F0684F785E02DEF80C2
:1018B000F88409851A859D014F855889898D9A8DEF
:1018C0000995D8CF570CC3948ACF6A960FB6F8946F
:1018D000DEBF0FBECDBFDF91CF911F910F91FF9063
:1018E000EF90DF90CF90BF90AF909F908F907F90C0
:1018F0006F905F904F903F902F9008958F929F929E
:10190000AF92CF92EF92FF920F931F93CF93DF93FB
:10191000EC01262F898D9A8D009709F051C06A300D
:10192000D1F41D861C868D8948E0849F9001112486
:101930008E859F85820F931F9F878E8781E090E021
:10194000DF91CF911F910F91FF90EF90CF90AF90CB
:101950009F908F9008956D3089F3CC88AD888F89E2
:101960008823C1F08C859D8536E0C39E800D911D36
:101970001124488559854817590764F44E855F85B9
:101980001D861C8638E0A39EC0011124840F951F7C
:101990009F878E87EA88FB88088919894E855F852D
:1019A0006C857D85CE010E94590A2C898C859D8588
:1019B00046E0249F800D911D11249D878C87BECF0A
:1019C0006A3069F41D861C86FC013696E4912D89E7
:1019D0008E859F85E29F800D911D1124ADCF6D30C6
:1019E00009F4ACCFFC0134963491631708F4A6CF08
:1019F0003196E491E61708F4A1CFFC013296859068
:101A00009490462F431B342F47E0349F800C911C49
:101A10001124F401329634913196E4913323A9F1E3
:101A2000EE2399F1CC88F4013596E491AD884F8985
:101A3000442301F10E2E000CFF0BE30FF11DCE9E8F
:101A4000A001CF9E500D11246C857D85460F571F38
:101A500068857985641775076CF44E855F851D86EA
:101A60001C86FC013696E491AE9E400D511D11245A
:101A70005F874E87EA88FB88088919894E855F85CC
:101A80006C857D85CE010E94590AF4013496E4915B
:101A90002C898C859D85E29F800D911D11248DCF11
:101AA0006F927F928F929F92AF92BF92CF92DF926E
:101AB000EF92FF920F931F93CF93DF93EC016B0193
:101AC0005A0139014801E881F9810284F385E02D4A
:101AD0000995E881F9810288F389E02D8701930156
:101AE000A501B601CE010995A501480D591D41502A
:101AF0005109E881F9810288F389E02D9301B6014B
:101B0000CE010995E881F9810088F189E02D9401E1
:101B1000A501B601CE010995C60CD71CB6016150CE
:101B20007109E881F9810088F189E02D9401A5010E
:101B3000CE010995E881F9810688F789E02DCE016B
:101B4000DF91CF911F910F91FF90EF90DF90CF9099
:101B5000BF90AF909F908F907F906F9009946F92FD
:101B60007F928F929F92AF92BF92CF92DF92EF922D
:101B7000FF920F931F93CF93DF935C01EB016A01F8
:101B8000490138018701DC01ED91FC91621773076F
:101B900019F5641675062CF0962D872D3A01C92E7D
:101BA000D82E9601261937092F5F3F4F048CF58DEB
:101BB000E02DA301BE01C5010995DF91CF911F91D1
:101BC0000F91FF90EF90DF90CF90BF90AF909F90DC
:101BD0008F907F906F9008954615570591F42617C2
:101BE000370724F0892D4B01C22FD82F9E012819C9
:101BF00039092F5F3F4F068CF78DE02DA601B40108
:101C0000DACF0284F385E02D0995D501ED91FC91A1
:101C10000488F589E02D83019401A601BE01C50168
:101C20000995D501ED91FC910688F789E02DC50154
:101C3000DF91CF911F910F91FF90EF90DF90CF90A8
:101C4000BF90AF909F908F907F906F900994EF928C
:101C5000FF920F931F93DC011A960D911C911B9715
:101C600018962D913C911997ED91FC9100A0F1A14E
:101C7000E02D7B0150E040E070E060E009951F91AD
:101C80000F91FF90EF9008954F925F926F927F9225
:101C90008F929F92AF92BF92CF92DF92EF92FF927C
:101CA0000F931F93CF93DF936C012B015A013901DE
:101CB0004801DC01ED91FC910284F385E02D09954A
:101CC000E201640C751CD601ED91FC91C615D70597
:101CD0005CF40088F189E02D87019401A501BE0123
:101CE000C60109952196EFCF0688F789E02DC60138
:101CF000DF91CF911F910F91FF90EF90DF90CF90E8
:101D0000BF90AF909F908F907F906F905F904F901B
:101D100009948F929F92AF92BF92CF92DF92EF92EF
:101D2000FF920F931F93CF93DF93EC015B014A0166
:101D30006901E881F9810284F385E02D0995950117
:101D40002C0D3D1D21503109E881F9810488F58968
:101D5000E02D78018401A401B501CE010995E88147
:101D6000F9810688F789E02DCE01DF91CF911F918F
:101D70000F91FF90EF90DF90CF90BF90AF909F902A
:101D80008F9009948F929F92AF92BF92CF92DF92E1
:101D9000EF92FF920F931F93CF93DF93EC015B01C0
:101DA0004A0169017801E881F9810284F385E02D17
:101DB0000995C80CD91C860101501109E881F981E7
:101DC0000488F589E02D9501A401B501CE0109959E
:101DD000E881F9810688F789E02DCE01DF91CF9166
:101DE0001F910F91FF90EF90DF90CF90BF90AF9039
:101DF0009F908F900994EF92FF920F931F93DC01B5
:101E0000ED91FC9100A0F1A1E02D09951F910F919A
:101E1000FF90EF9008950F931F93DC01ED91FC91DB
:101E2000068CF78DE02D09951F910F9108950F9362
:101E30001F93DC01ED91FC91048CF58DE02D09954B
:101E40001F910F910895DC01ED91FC910084F185C3
:101E5000E02D09943F924F925F926F927F928F9202
:101E60009F92AF92BF92CF92DF92EF92FF920F9329
:101E70001F93CF93DF9300D000D0CDB7DEB75C01C6
:101E80003B016A014901280187E0480E511C93E09B
:101E9000559447949A95E1F7CA018E0D9F1D9A8338
:101EA0008983F12CE12C312C1C821B828B819C813B
:101EB00087709927330C892B61F4EB81FC8183E0D7
:101EC000F595E7958A95E1F7EE0DFF1DE80DF91DF3
:101ED000349037FE0AC021E030E0A6016B817C819E
:101EE000660D771DC5010E94230F8B819C81019691
:101EF0009C838B8308171907C9F69FEFC91AD90A63
:101F0000E40CF51C89819A81C816D90669F60F90F0
:101F10000F900F900F90DF91CF911F910F91FF9035
:101F2000EF90DF90CF90BF90AF909F908F907F9079
:101F30006F905F904F903F9008952F923F924F92F5
:101F40005F926F927F928F929F92AF92BF92CF9249
:101F5000DF92EF92FF920F931F93CF93DF9300D006
:101F600000D000D0CDB7DEB73C016A013E832D839F
:101F7000FC82EB825801A41AB50AB7FE03C0B194E3
:101F8000A194B1088D809E80861A970A97FE03C09F
:101F90009194819491088A149B045CF0902F812F76
:101FA0000D811E819D838E839C2D8D2D6B01692F4C
:101FB000782F0C151D055CF09D818E817E836D83CD
:101FC000692F782F902F812F8601C92ED82E1601C8
:101FD000201A310A2B012D813E81421A530A57FEE5
:101FE00003C0519441945108710137FE03C03FEF83
:101FF000E31AF30AF594E7948D819E81861797077B
:102000005CF5A1E0B0E0BA83A983C016D1064CF11B
:10201000D301ED91FC910484F585E02D2B813C8169
:10202000A8016D817E818A149B041CF04D815E8124
:10203000B801C3010995E418F508F7FE0AC02D811F
:102040003E8189819A81280F391F3E832D83E20CBE
:10205000F31C0F5F1F4FD9CF2FEF3FEF3A83298338
:10206000D4CF26960FB6F894DEBF0FBECDBFDF915A
:10207000CF911F910F91FF90EF90DF90CF90BF9085
:10208000AF909F908F907F906F905F904F903F9018
:102090002F900895089585ED8093BC008091BC0039
:1020A00084FDFCCF1092370208952091E001260FA5
:1020B0003327331F21323105ECF420913702FC0124
:1020C00090E080E0243069F082E00895A091E00182
:1020D0002191AC0140545E4FA40FB52FB11D2C933C
:1020E0000196861798F38091E001680F6093E001F4
:1020F00080E0089581E00895E091390280913802EE
:10210000E81730F4F0E0E056FE4F808190E008954B
:102110008FEF9FEF089590913902809138022FEF51
:102120003FEF981748F4E92FF0E0E056FE4F20818A
:1021300030E09F5F90933902C90108958091380281
:1021400090913902891B990B0895CF92DF92EF92FB
:10215000FF920F931F93CF93DF937C01CB018A01F2
:1021600020919F02222389F0EB016B01C40ED51E42
:10217000CC15DD0569F06991D701ED91FC910190D5
:10218000F081E02DC7010995F3CF642F0E9455100F
:10219000C801DF91CF911F910F91FF90EF90DF90D9
:1021A000CF900895CF93DF931F92CDB7DEB76983A9
:1021B00020919F022223F9F020919C02203258F0B6
:1021C00021E030E0FC013383228390E080E00F9037
:1021D000DF91CF91089580919D02E82FF0E0E058C3
:1021E000FE4F998190838F5F80939D0280939C0224
:1021F00081E090E0ECCF61E0CE0101960E945510A5
:10220000F7CF20919C0281E0213208F044C08091F8
:1022100037028111FCCF80919E0292E090933702A9
:1022200091E0909336029FEF909303021092250263
:1022300020932402A0E8B1E0E4E0F2E090E029136A
:1022400031C01092260290912602880F892B80932C
:10225000260280913502813049F510923502809135
:1022600026028093BB008091BC0083FDF8CF85ECF3
:102270008093BC00809137028230E1F380910302A9
:102280008F3FB1F0809103028032A1F08091030270
:10229000803391F084E010929D0210929C02109283
:1022A0009F0208953D9131939F5FC9CF85EEE0CFA6
:1022B00080E0F1CF82E0EFCF83E0EDCFFF920F938C
:1022C0001F93CF93DF93F82ED92FC62F80916603EB
:1022D00090916703009709F452C020916A0331E09E
:1022E00030939F0220939E0210929D0210929C02B6
:1022F000DC01ED91FC910190F081E02D60E0099509
:102300000F2D1D2FD1E0FF24F394C150809166035F
:1023100090916703CF3F61F1D032C8F00E94011164
:10232000809166039091670320916A03F0929F0267
:1023300020939E0210929D0210929C02DC01ED916E
:10234000FC910190F081E02D60E00995D1E0809151
:10235000660390916703F8016491DC01ED91FC91B3
:102360000190F081E02D0995DF5F0F5F1F4FCDCF0A
:10237000DF91CF911F910F91FF900C940111E0918B
:102380007603F0917703908180917C038095892377
:1023900080830F2D1D2FC15008F438C0F80184919F
:1023A0002091640330916503232B29F00E94390AA0
:1023B0000F5F1F4FF0CF28E030E040E8E09172035C
:1023C000F091730390917A03582F5423D9F05081E0
:1023D000952B9083E0917403F09175039081509157
:1023E0007B03952B9083E0917403F09175035081EA
:1023F00090917B03909595239083469521503109C8
:10240000E9F6D6CF508190959523E3CFDF91CF9118
:102410001F910F91FF9008951F93CF93DF93EC01CD
:102420008D8D9E8D009721F1162F29A131E03093DB
:102430009F0220939E0210929D0210929C02DC014A
:10244000ED91FC910190F081E02D60E009958D8D7A
:102450009E8DDC01ED91FC910190F081E02D612FCA
:1024600009958D8D9E8DDF91CF911F910C94011157
:10247000ADA5BEA59C918BA9809589238C938B8D4E
:102480009C8D892B31F0862FDF91CF911F910C9479
:10249000390A28E030E080E8A9A5BAA599A9462F15
:1024A0004823C1F04C91942B9C93ABA5BCA59C9167
:1024B0004AA9942B9C93ABA5BCA54C919AA9909545
:1024C00094239C9386952150310931F7DF91CF9168
:1024D0001F9108954C9190959423E6CFEF92FF922F
:1024E0000F931F93CF93DF938091660390916703BF
:1024F000892B09F493C020917E0330917F03409192
:1025000080035091810360E074E284EF90E00E94C8
:10251000CF222051310941095109569547953795E8
:1025200027952093B80065E08AE79BE00E945E1142
:1025300060914D03615089E493E00E940C12209158
:102540004F0330915003C901079697FD079623E08A
:10255000959587952A95E1F720914D0330914E038B
:10256000829F8001839F100D929F100D1124C091B6
:102570006803D091690380916603909167030C0F03
:102580001D1F009709F489C020916A0331E0309340
:102590009F0220939E0210929D0210929C02DC01E9
:1025A000ED91FC910190F081E02D60E40995FF240C
:1025B000F394EE24E39480916603909167030C17E3
:1025C0001D0709F442C0BFE1BF15D0F40E940111FC
:1025D000809166039091670320916A03E0929F02C5
:1025E00020939E0210929D0210929C02DC01ED91BC
:1025F000FC910190F081E02D60E40995FF24F394B3
:1026000080916603909167036991DC01ED91FC91E3
:102610000190F081E02D0995F394CDCF8091640372
:1026200090916503892B31F0809187039091880305
:102630000E94400AE0917803F091790390818091A3
:102640007D038095892380836ECF0E940111809144
:10265000660390916703892B09F460C0209182037F
:1026600030918303409184035091850360E074E2CC
:1026700084EF90E00E94CF22205131094109510995
:1026800056954795379527952093B800DF91CF91C0
:102690001F910F91FF90EF900895E0917603F091D4
:1026A0007703808190917C03892B80830C171D0711
:1026B00071F289912091640330916503232B19F005
:1026C0000E94390AF3CF28E030E040E8E09172033D
:1026D000F091730390917A03582F5423D9F05081CD
:1026E000952B9083E0917403F09175039081509144
:1026F0007B03952B9083E0917403F09175035081D7
:1027000090917B03909595239083469521503109B4
:10271000E9F6CCCF508190959523E3CFE0917803F3
:10272000F0917903808190917D03892B8083AECFD6
:102730001F93CF93DF93EC01162F8D8D9E8D892BE8
:10274000B1F12DA93EA94FA958AD60E074E284EF24
:1027500090E00E94CF22205131094109510956953C
:102760004795379527952093B80066EA111167EAD7
:10277000CE010E940C128D8D9E8D892B41F129ADC9
:102780003AAD4BAD5CAD60E074E284EF90E00E9446
:10279000CF22205131094109510956954795379566
:1027A00027952093B800DF91CF911F9108958B8DCD
:1027B0009C8D892B21F08EAD9FAD0E94400AEFA524
:1027C000F8A990818CA9809589238083CECFEFA52D
:1027D000F8A980819CA9892B8083E5CF90E080E0D7
:1027E000089523E333E343E251E460913C027091A6
:1027F0003D0280913E0290913F020E94582218169D
:10280000B4F480913A0290913B02877F892B79F44E
:1028100060E085E10E94FC0661E084E10E94FC0624
:1028200081E090E090933B0280933A02089523E385
:1028300033E343E251E460914002709141028091A0
:102840004202909143020E94582218168CF4809103
:102850003A0290913B02019759F460E083E10E94B3
:10286000FC0661E082E10E94FC0682E090E0DACFA3
:1028700023E333E343E251E4609144027091450263
:1028800080914602909147020E94582218168CF4BB
:1028900080913A0290913B02029759F460E081E105
:1028A0000E94FC0661E080E10E94FC0683E090E06B
:1028B000B9CF23E333E343E251E4609148027091DE
:1028C000490280914A0290914B020E9458221816A8
:1028D0008CF480913A0290913B02039759F460E0A6
:1028E0008FE00E94FC0661E08EE00E94FC0684E01E
:1028F00090E098CF23E333E343E251E460914C024C
:1029000070914D0280914E0290914F020E94582288
:1029100018168CF480913A0290913B02049759F476
:1029200060E08DE00E94FC0661E08CE00E94FC0605
:1029300085E090E077CF23E333E343E251E4609115
:1029400050027091510280915202909153020E9464
:10295000582218168CF480913A0290913B02059708
:1029600059F460E08BE00E94FC0661E08AE00E947E
:10297000FC0686E090E056CF23E333E343E251E4E4
:1029800060915402709155028091560290915702C5
:102990000E94582218168CF480913A0290913B02C2
:1029A000069759F460E089E00E94FC0661E088E047
:1029B0000E94FC0687E090E035CF23E333E343E257
:1029C00051E460915C0270915D0280915E02909191
:1029D0005F020E94582218160CF028CF80913A020C
:1029E00090913B02079709F021CF60E087E00E94B9
:1029F000FC0661E086E00E94FC0688E090E012CFD1
:102A000020914F0330915003C901079697FD079617
:102A100023E0959587952A95E1F720914D03309114
:102A20004E03829FA001839F500D929F500D112451
:102A300070E060E080916803909169030C94212418
:102A40000E941C24FB0101900020E9F73197AF019F
:102A5000461B570BDC01ED91FC910280F381E02DC8
:102A600009948F929F92AF92BF920F931F93CF932F
:102A7000DF93CDB7DEB7A1970FB6F894DEBF0FBED8
:102A8000CDBF19A2423008F44AE08E010F5D1F4FFE
:102A9000842E912CB12CA12CA50194010E94CF224F
:102AA000E62FB901CA01EA3004F5E05DD801EE93E2
:102AB0008D01232B242B252B79F790E080E01097B4
:102AC00029F0BD0180EA92E00E942215A1960FB67E
:102AD000F894DEBF0FBECDBFDF91CF911F910F9154
:102AE000BF90AF909F908F900895E95CDFCFCF9219
:102AF000DF92EF92FF92CF93DF936C01990FEE0874
:102B0000FF08F7FE21C06DE280EA92E00E948F0686
:102B1000EC0166277727CB016C197D098E099F0987
:102B20004AE00E943115C80FD91F66E571E080EABE
:102B300092E00E9422158C0F9D1FDF91CF91FF9094
:102B4000EF90DF90CF9008954AE0C701B6010E9450
:102B50003115EC01EACF4F925F926F927F928F9284
:102B60009F92AF92BF92CF92DF92EF92FF926B0152
:102B70007C01AC019B010E94CA2269E571E08111D0
:102B80001AC046015701E894B7F82FEF3FEF4FE71F
:102B90005FE7C501B4010E94CA22811126C02FEF50
:102BA0003FEF4FE75FE7C501B4010E94002118160F
:102BB000E4F46DE571E080EA92E00E9422157C0168
:102BC00066E571E080EA92E00E9422158E0D9F1D5D
:102BD000FF90EF90DF90CF90BF90AF909F908F903D
:102BE0007F906F905F904F9008952FEF3FEF4FE7EA
:102BF0005FE4C701B6010E94582218161CF461E672
:102C000071E0D9CF2FEF3FEF4FE75FECC701B6017F
:102C10000E94002187FDF3CF20E030E0A901C70129
:102C2000B6010E940021B12CA12C87FF0AC06DE2E1
:102C300080EA92E00E948F065C01F7FAF094F7F8C0
:102C4000F0942AE037ED43EA5BE3C701B6010E9446
:102C500094202B013C010E9477216B017C010E9492
:102C6000A6219B01AC01C301B2010E9493202B015C
:102C70003C014AE0C701B6010E9431157C01EA0C13
:102C8000FB1C6EE280EA92E00E948F06E80EF91EBD
:102C900020E030E040E251E4C301B2010E945D2235
:102CA0002B013C010E9477214B01B12CA12C4AE061
:102CB000C501B4010E943115E80EF91EC501B40129
:102CC0000E94A6219B01AC01C301B2010E94932086
:102CD00020E030E040E251E40E945D220E94772132
:102CE00090E080E04AE00E943115E80EF91E68CFBE
:102CF0001F920F920FB60F9211242F933F934F9371
:102D00005F936F937F938F939F93AF93BF93EF9353
:102D1000FF9380EA92E00E946D06FF91EF91BF91D0
:102D2000AF919F918F917F916F915F914F913F9163
:102D30002F910F900FBE0F901F9018951F920F921A
:102D40000FB60F9211242F938F939F93EF93FF93BE
:102D5000E091B002F091B1028081E091B602F09171
:102D6000B70282FD1BC090818091B9028F5F8F7383
:102D70002091BA02821741F0E091B902F0E0E056EA
:102D8000FD4F958F8093B902FF91EF919F918F91A5
:102D90002F910F900FBE0F901F9018958081F4CF48
:102DA0001F920F920FB60F9211242F933F938F9380
:102DB0009F93AF93BF938091280290912902A09195
:102DC0002A02B0912B023091270223E0230F2D37E6
:102DD00058F50196A11DB11D20932702809328026A
:102DE00090932902A0932A02B0932B0280912C0287
:102DF00090912D02A0912E02B0912F020196A11D5B
:102E0000B11D80932C0290932D02A0932E02B093BB
:102E10002F02BF91AF919F918F913F912F910F9072
:102E20000FBE0F901F90189526E8230F0296A11D44
:102E3000B11DD2CF1F920F920FB60F9211242F9374
:102E40003F934F935F936F937F938F939F93AF9332
:102E5000BF93EF93FF938091B900887F803609F488
:102E60004AC0F0F5883209F4A7C018F5803109F49A
:102E70009BC0B8F4882309F4F9C0883009F494C0E1
:102E8000FF91EF91BF91AF919F918F917F916F9142
:102E90005F914F913F912F910F900FBE0F901F9018
:102EA0001895883109F488C0803251F78093030265
:102EB00014C0803409F49DC040F48033B9F38833E2
:102EC000F9F68093030285ECB0C0803509F485C023
:102ED000883509F496C0883499F60E944B10D0CFFB
:102EE000883909F48CC038F5883729F050F48836D1
:102EF00011F0803729F683E08093370210920202A6
:102F000057C0883809F47BC0803919F0803809F03F
:102F1000B7CF80910202803208F071C0E0910202C6
:102F200081E08E0F809302028091BB00F0E0EE51B1
:102F3000FE4F80833DC0803B39F0E0F4803A09F4D5
:102F400079C0883A09F09CCF84E0809337021092D0
:102F5000E1011092E001E0913302F0913402099511
:102F60008091E00181110FC081E08093E001109217
:102F7000C00109C0803C09F4A6CF883C09F4A3CF66
:102F8000883B09F07DCFE091E10181E08E0F8093D5
:102F9000E101F0E0E054FE4F80818093BB0090910E
:102FA000E1018091E00129C0809126028093BB005D
:102FB00085EC8093BC0064CF90912502809124021F
:102FC000981758F5E091250281E08E0F8093250235
:102FD000F0E0EC5FFD4F8081E9CFE091250281E0D8
:102FE0008E0F809325028091BB00F0E0EC5FFD4FD7
:102FF000808390912502809124029817C8F285E879
:10300000D8CFE091250281E08E0F80932502809138
:10301000BB00F0E0EC5FFD4F8083809136028111B0
:103020005CCF81E08093350284EA8093BC001092EB
:10303000370226CF85EC8093BC0010923702809136
:103040000202803230F4E0910202F0E0EE51FE4FD5
:1030500010826091020270E0E0913102F091320240
:1030600082EE91E00995109202020ACF10920302BB
:1030700034CFE0EAF2E01382128248EE53E060E0DF
:1030800070E044835583668377838AE091E091837F
:10309000808385EC90E09587848784EC90E0978727
:1030A000868780EC90E0918B808B81EC90E0938B15
:1030B000828B82EC90E0958B848B86EC90E0978BF2
:1030C000868B118E128E138E148EADE3B3E01396A1
:1030D0001C921E92129714964D935D936D937C9360
:1030E00017978CE191E011969C938E93E9E4F3E0BD
:1030F0001382128220E830E03583248380E290E05E
:10310000978386833187208793878287168A1586DF
:1031100014861786168681E0858B848B2FEF3FEF10
:10312000338B228B318B208B878B108E128E118EDE
:103130008EE291E091838083148E138EB68FA58FDB
:1031400010A2178E8FEF84A385A386A387A384E0A4
:1031500080A780E586AF17AE0895CF93DF93CDB7F4
:10316000DEB764970FB6F894DEBF0FBECDBF78947C
:1031700084B5826084BD84B5816084BD85B582607C
:1031800085BD85B5816085BD80916E00816080932D
:103190006E00109281008091810082608093810096
:1031A00080918100816080938100809180008160A6
:1031B000809380008091B10084608093B100809101
:1031C000B00081608093B00080917A008460809329
:1031D0007A0080917A00826080937A0080917A00F0
:1031E000816080937A0080917A00806880937A0071
:1031F0001092C100E091B002F091B10282E08083B0
:10320000E091AC02F091AD021082E091AE02F0913B
:10321000AF028FEC80831092B802E091B402F0917B
:10322000B50286E08083E091B202F091B302808122
:1032300080618083E091B202F091B3028081886066
:103240008083E091B202F091B30280818068808334
:10325000E091B202F091B30280818F7D80838091F2
:10326000680390916903892B39F10E9400158091C0
:103270004F039091500360914D0370914E03813242
:1032800091050CF0FEC0AC014052510957FF02C03D
:103290004F5F5F4F559547956357710977FF02C0A0
:1032A0006F5F7F4F75956795E0E2EE2EF12C03E797
:1032B00010E02AED35E0FDC020914F03309150031E
:1032C000C901079697FD079603E0959587950A959E
:1032D000E1F720914D0330914E03AC01429FC001B4
:1032E000439F900D529F900D11240E94F7229093BE
:1032F000690380936803892B09F0B7CF0E940015FA
:1033000061E085E10E94480761E084E10E9448078E
:1033100061E083E10E94480761E082E10E94480782
:1033200061E081E10E94480761E080E10E94480776
:1033300061E08FE00E94480761E08EE00E9448074C
:1033400061E08DE00E94480761E08CE00E94480740
:1033500061E08BE00E94480761E08AE00E94480734
:1033600061E089E00E94480761E088E00E94480728
:1033700061E087E00E94480761E086E00E9448071C
:1033800061E085E00E94480761E084E00E94480710
:1033900061E083E00E94480760E082E00E94480705
:1033A00060E084E10E94FC0660E085E10E94FC068A
:1033B00060E082E10E94FC0660E083E10E94FC067E
:1033C00060E080E10E94FC0660E081E10E94FC0672
:1033D00060E08EE00E94FC0660E08FE00E94FC0648
:1033E00060E08CE00E94FC0660E08DE00E94FC063C
:1033F00060E08AE00E94FC0660E08BE00E94FC0630
:1034000060E088E00E94FC0660E089E00E94FC0623
:1034100060E086E00E94FC0660E087E00E94FC0617
:1034200060E085E00E94FC0660E084E00E94FC060B
:1034300060E083E00E94FC0640E0242E40E0342E51
:103440000CE712E09CE5A92E92E0B92E2CE3C22EE7
:1034500022E0D22E3CE8832E32E0932EF12CE12C98
:10346000F7013197E730F10508F030C2E65CF54E20
:103470000C94F122DF1DE11DE71DE91DF31DF51D73
:10348000FB1DAC014054510957FF02C04F5F5F4F15
:10349000559547956255710977FF02C06F5F7F4F61
:1034A00075956795B0E4EB2EF12C02E510E02AEB60
:1034B00037E089E493E00E942A0F82E080936B0357
:1034C0008091660390916703892B09F4FDC08DE319
:1034D00080936A03109239021092380210929D0272
:1034E00010929C021092370281E080933602109273
:1034F000350261E082E10E94FC0661E083E10E9406
:10350000FC068091B9008E7F8093B9008091B9004C
:103510008D7F8093B90088E48093B80085E4809320
:10352000BC008DEE95E090933402809333028EEED2
:1035300095E090933202809331028091710387FD70
:103540001EC061E00E94480761E0809171030E9403
:10355000FC0661E070E080E090E00E94B00760E06F
:10356000809171030E94FC066AE070E080E090E0C8
:103570000E94B00761E0809171030E94FC06809177
:10358000660390916703892B09F45FC120917E0344
:1035900030917F03409180035091810360E074E299
:1035A00084EF90E00E94CF22205131094109510956
:1035B00056954795379527952093B80064E084EA9F
:1035C00095E00E945E1160914F03615089E493E0A1
:1035D0000E940C1264E080EA95E00E945E118091E6
:1035E0006B0364E1813009F460E189E493E00E94B7
:1035F0000C1264E08CE995E00E945E118FE88093E4
:10360000860380914D0390914E038038910509F017
:1036100035C180914F03909150038034910509F09A
:1036200042C180916B03813009F426C18FEC8093F5
:10363000860392E199836AED89E493E00E940C127B
:10364000698189E493E00E940C1261E889E493E0C7
:103650000E940C126091860389E493E00E940C1290
:1036600069ED89E493E00E940C1280916B0361EF95
:10367000813009F462E289E493E00E940C1266E072
:1036800086E995E00E945E11809166039091670340
:10369000892B09F411C12091820330918303409159
:1036A00084035091850360E074E284EF90E00E940F
:1036B000CF22205131094109510956954795379537
:1036C00027952093B8001ACE61E080916F030E9485
:1036D000480761E0809170030E94480780916F0362
:1036E000082E000C990BFC01EA53FA4FE491F0E02C
:1036F000EE0FFF1FE454FA4F259134913093770376
:1037000020937603FC01E855FA4FE491E0937C03A3
:1037100080917003082E000C990BFC01EA53FA4FBC
:10372000E491F0E0EE0FFF1FE454FA4FA591B4913D
:10373000B0937903A0937803FC01E855FA4FE49124
:10374000E0937D038C91E82BEC938091640390913E
:103750006503892B09F436C05FB75983F8948091CB
:103760003002811127C0E0EDF5E08491E2EBF5E055
:103770009491E82FF0E0EE0FFF1FE457FA4FA59168
:10378000B491EC91E92321F461E08AE00E94FC0607
:1037900061E08AE00E9448078CB580618CBD8CB5E1
:1037A00080648CBD61E08DE00E94480761E08BE0A1
:1037B0000E944807809130028F5F80933002898198
:1037C0008FBFBBCE61E080916D030E94480761E02E
:1037D00080916E030E94480780916D03082E000CB3
:1037E000990BFC01EA53FA4FE491F0E0EE0FFF1F52
:1037F000E454FA4F2591349130937303209372036C
:10380000FC01E855FA4FE491E0937A0380916E034E
:10381000082E000C990BFC01EA53FA4FE491F0E0FA
:10382000EE0FFF1FE454FA4FA591B491B0937503C6
:10383000A0937403FC01E855FA4FE491E0937B03F5
:103840008C91E095E823EC9378CE8091640390917D
:103850006503892B31F080918703909188030E9442
:10386000400AE0917803F0917903908180917D0383
:10387000809589238083A2CE8FE9D9CE80369105A9
:10388000A9F480914F0390915003409791F4809157
:103890006B03813031F08FEA80938603A2E0A98325
:1038A000CACE80E1F9CFB2E0B983C5CEE2E0E983C8
:1038B000C2CEF2E0F983BFCEE0917803F0917903B4
:1038C000808190917D03892B808318CD60E085E015
:1038D0000E94FC0660E084E00E94FC0660E083E059
:1038E0000E94FC06D8011D921C92F50110821182E3
:1038F00012821382D6011D921D921D921C92139763
:103900008EE00E947907F401918380830E947715ED
:1039100065E070E080E090E00E94B0078FE00E94D8
:103920007907D8018D939C930E947715F4016191DA
:1039300071914F01072E000C880B990B0E94A82152
:1039400023E333E343E550E40E945D2220E030ECC2
:103950004FE754E40E94052123E333E343E550E4B9
:103960000E9405212AE939E949E95EE30E945D22C6
:103970002AE939E949E15EE30E9493202AE037ED24
:1039800043E25CE30E9405212CEE31E548E35FE36E
:103990000E949320D5016D937D938D939D935D013E
:1039A000F801619171918F01072E000C880B990B22
:1039B0000E94A82123E333E343E550E40E945D2203
:1039C00020E030EC4FE754E40E94052120E030E095
:1039D00040E751E40E945D2220E030E040E450E402
:1039E0000E940521D6016D937D938D939D936D016A
:1039F00065E070E080E090E00E94B007BFEFEB1A56
:103A0000FB0AE8E0EE16F10409F02ACD80913C02B1
:103A100090913D02A0913E02B0913F0289839A832A
:103A2000AB83BC832DEC3CEC48E451E4BC01CD01FC
:103A30000E945822181624F460E085E10E94FC06DA
:103A4000C0904002D0904102E0904202F0904302C8
:103A50002DEC3CEC48E451E4C701B6010E94582229
:103A6000181624F460E083E10E94FC068091440271
:103A700090914502A0914602B09147028D839E83AA
:103A8000AF83B8872DEC3CEC48E451E4BC01CD0198
:103A90000E945822181624F460E081E10E94FC067E
:103AA0008091480290914902A0914A02B0914B0244
:103AB00089879A87AB87BC872DEC3CEC48E451E4BE
:103AC000BC01CD010E945822181624F460E08FE05A
:103AD0000E94FC0680914C0290914D02A0914E02F2
:103AE000B0914F028D879E87AF87B88B2DEC3CEC51
:103AF00048E451E4BC01CD010E945822181624F478
:103B000060E08DE00E94FC0680915002909151028D
:103B1000A0915202B0915302898B9A8BAB8BBC8BD4
:103B20002DEC3CEC48E451E4BC01CD010E9458224C
:103B3000181624F460E08BE00E94FC0640905402CA
:103B40005090550260905602709057022DEC3CEC5C
:103B500048E451E4C301B2010E945822181624F42B
:103B600060E089E00E94FC06809058029090590223
:103B7000A0905A02B0905B022DEC3CEC48E451E47A
:103B8000C501B4010E945822181624F460E087E0B1
:103B90000E94FC06E0913A02F0913B02E930F10507
:103BA00008F0D0C0EA52F24E0C94F122FD1DFF1D28
:103BB000151E661E701E7A1E841E8E1E981E61E0E3
:103BC00086CE60E085E00E94FC0661E084CE61E084
:103BD000F9CF60E085E00E94FC0660E084E00E948E
:103BE000FC0661E07CCE61E0F5CF60E085E00E94FC
:103BF000FC0661E0F3CF61E0F9CF0E94F11326E605
:103C000036E64AE151E469817A818B819C810E9488
:103C1000002187FF0AC00E94F11360E084E10E9446
:103C2000FC0661E085E10E94FC0626E636E64AE1F4
:103C300051E4C701B6010E94002187FF47C00E94DE
:103C4000F11360E082E10E94FC0661E083E10E94E2
:103C5000FC060E94F11360E080E10E94FC0661E036
:103C600081E10E94FC060E94F11360E08EE00E9458
:103C7000FC0661E08FE00E94FC060E94F11360E008
:103C80008CE00E94FC0661E08DE00E94FC060E9430
:103C9000F11360E08AE00E94FC0661E08BE00E9484
:103CA000FC060E94F11360E088E00E94FC0661E0DF
:103CB00089E00E94FC060E94F11360E086E00E9409
:103CC000FC0661E087E00E94FC063CC026E636E682
:103CD0004AE151E4C701B6010E94002187FDB9CF36
:103CE00026E636E64AE151E4C701B6010E9400210A
:103CF00087FDB9CF26E636E64AE151E4C701B601B1
:103D00000E94002187FDB9CF26E636E64AE151E45C
:103D1000C701B6010E94002187FDB9CF26E636E62D
:103D20004AE151E4C701B6010E94002187FDB9CFE5
:103D300026E636E64AE151E4C701B6010E940021B9
:103D400087FDB9CF23E333E347E451E469817A8106
:103D50008B819C810E94002187FF0BC080913A02D9
:103D600090913B02019709F47AC161E085E10E94DC
:103D7000FC0623E333E347E451E4C701B6010E94A4
:103D8000002187FF0BC080913A0290913B0202977D
:103D900009F470C161E083E10E94FC0623E333E390
:103DA00047E451E46D817E818F8198850E940021D6
:103DB00087FF0BC080913A0290913B02039709F470
:103DC00066C161E081E10E94FC0623E333E347E43E
:103DD00051E469857A858B859C850E94002187FF47
:103DE0000BC080913A0290913B02049709F45CC1A8
:103DF00061E08FE00E94FC0623E333E347E451E4F3
:103E00006D857E858F8598890E94002187FF0BC074
:103E100080913A0290913B02059709F452C161E00A
:103E20008DE00E94FC0623E333E347E451E4698913
:103E30007A898B899C890E94002187FF0BC0809121
:103E40003A0290913B02069709F448C161E08BE089
:103E50000E94FC0623E333E347E451E4C301B201CB
:103E60000E94002187FF0BC080913A0290913B0293
:103E7000079709F43EC161E089E00E94FC0623E354
:103E800033E347E451E4C501B4010E94002187FFF8
:103E90000AC080913A0290913B02089721F061E0BC
:103EA00087E00E94FC0665E671E080EA92E00E94ED
:103EB000221580918C0290918D020E9477156BE6FD
:103EC00071E080EA92E00E94221580917E0290913A
:103ED0007F020E94771565E671E080EA92E00E9419
:103EE000221580918E0290918F020E9477156BE6C9
:103EF00071E080EA92E00E94221580917C0290910C
:103F00007D020E94771567E671E080EA92E00E94E8
:103F1000221560915C0270915D0280915E02909129
:103F20005F020E94AB156DE671E080EA92E00E94AC
:103F300022156091600270916102809162029091FD
:103F400063020E94AB1561E771E080EA92E00E9493
:103F5000221560913C0270913D0280913E02909149
:103F60003F020E94AB1565E771E080EA92E00E9493
:103F7000221560914002709141028091420290911D
:103F800043020E94AB1568EE73E080E090E00E946F
:103F9000B00781E080935D0380935E03A1E0B0E011
:103FA000B0935C03A0935B03B0935A03A0935903AF
:103FB0001092560310925503109258031092570313
:103FC00069E771E089E493E00E94221566E571E0FB
:103FD00089E493E00E9422150E946E1280E1E82E8F
:103FE000F12C00E210E02AE33BE040E250E070E018
:103FF00060E089E493E00E942A0F0E946E122AEF8B
:104000003AE040E250E062E270E089E493E00E942E
:104010002A0F0E946E122AEB3AE040E250E061E47F
:1040200070E089E493E00E942A0F0E946E122AE752
:104030003AE040E250E061E670E089E493E00E94FB
:104040002A0F0E946E122114310409F4F9C90E944A
:104050005906882309F4F4C90E940000F1C923E33A
:1040600033E347E451E4C701B6010E94002187FD14
:1040700091CE94CE23E333E347E451E46D817E8116
:104080008F8198850E94002187FD9BCE9ECE23E3E1
:1040900033E347E451E469857A858B859C850E94EA
:1040A000002187FDA5CEA8CE23E333E347E451E406
:1040B0006D857E858F8598890E94002187FDAFCE12
:1040C000B2CE23E333E347E451E469897A898B89EB
:1040D0009C890E94002187FDB9CEBCCE23E333E347
:1040E00047E451E4C301B2010E94002187FDC3CE21
:1040F000C6CE23E333E347E451E4C501B4010E9493
:10410000002187FDCCCECFCE8EE291E090934A0382
:10411000809349038091680390916903009711F09F
:104120000C94932308955058BB27AA270E94AB20D4
:104130000C941E220E94102238F00E94172220F0B8
:1041400039F49F3F19F426F40C940D220EF4E095F7
:10415000E7FB0C940722E92F0E942F2258F3BA178D
:10416000620773078407950720F079F4A6F50C948D
:1041700051220EF4E0950B2EBA2FA02D0B01B901A0
:1041800090010C01CA01A0011124FF27591B99F0CD
:10419000593F50F4503E68F11A16F040A22F232FD9
:1041A000342F4427585FF3CF469537952795A79529
:1041B000F0405395C9F77EF41F16BA0B620B730BD0
:1041C000840BBAF09150A1F0FF0FBB1F661F771F41
:1041D000881FC2F70EC0BA0F621F731F841F48F4F6
:1041E000879577956795B795F7959E3F08F0B0CF7F
:1041F0009395880F08F09927EE0F97958795089566
:104200000E94E32108F481E008950E9419210C9492
:104210001E220E94172258F00E94102240F029F41A
:104220005F3F29F00C94072251110C9452220C94F8
:104230000D220E942F2268F39923B1F3552391F3A5
:10424000951B550BBB27AA2762177307840738F005
:104250009F5F5F4F220F331F441FAA1FA9F335D062
:104260000E2E3AF0E0E832D091505040E695001C16
:10427000CAF72BD0FE2F29D0660F771F881FBB1FD0
:10428000261737074807AB07B0E809F0BB0B802DAE
:10429000BF01FF2793585F4F3AF09E3F510578F0DA
:1042A0000C9407220C9452225F3FE4F3983ED4F31F
:1042B000869577956795B795F7959F5FC9F7880FAE
:1042C000911D9695879597F90895E1E0660F771F00
:1042D000881FBB1F621773078407BA0720F0621B91
:1042E000730B840BBA0BEE1F88F7E09508950E94BC
:1042F000372288F09F5798F0B92F9927B751B0F01F
:10430000E1F0660F771F881F991F1AF0BA95C9F759
:1043100014C0B13091F00E945122B1E008950C9484
:104320005122672F782F8827B85F39F0B93FCCF337
:10433000869577956795B395D9F73EF490958095D6
:10434000709561957F4F8F4F9F4F0895E89409C0F6
:1043500097FB3EF490958095709561957F4F8F4FB8
:104360009F4F9923A9F0F92F96E9BB279395F695CE
:10437000879577956795B795F111F8CFFAF4BB0F4C
:1043800011F460FF1BC06F5F7F4F8F4F9F4F16C0B0
:10439000882311F096E911C0772321F09EE8872F3A
:1043A000762F05C0662371F096E8862F70E060E0F6
:1043B0002AF09A95660F771F881FDAF7880F96956F
:1043C000879597F90895990F0008550FAA0BE0E813
:1043D000FEEF16161706E807F907C0F012161306C7
:1043E000E407F50798F0621B730B840B950B39F407
:1043F0000A2661F0232B242B252B21F408950A266D
:1044000009F4A140A6958FEF811D811D089597F9AC
:104410009F6780E870E060E008959FEF80EC08956A
:1044200000240A9416161706180609060895002493
:104430000A9412161306140605060895092E03940D
:10444000000C11F4882352F0BB0F40F4BF2B11F481
:1044500060FF04C06F5F7F4F8F4F9F4F089557FDE0
:104460009058440F551F59F05F3F71F04795880FE2
:1044700097FB991F61F09F3F79F087950895121679
:1044800013061406551FF2CF4695F1DF08C0161625
:1044900017061806991FF1CF8695710561050894D6
:1044A0000895E894BB2766277727CB0197F90895ED
:1044B0000E94E32108F48FEF08950E9470220C946B
:1044C0001E220E94102238F00E94172220F095230D
:1044D00011F00C9407220C940D2211240C945222FA
:1044E0000E942F2270F3959FC1F3950F50E0551F46
:1044F000629FF001729FBB27F00DB11D639FAA2739
:10450000F00DB11DAA1F649F6627B00DA11D661F87
:10451000829F2227B00DA11D621F739FB00DA11DA8
:10452000621F839FA00D611D221F749F3327A00D62
:10453000611D231F849F600D211D822F762F6A2FFE
:1045400011249F5750409AF0F1F088234AF0EE0F63
:10455000FF1FBB1F661F771F881F91505040A9F790
:104560009E3F510580F00C9407220C9452225F3F2D
:10457000E4F3983ED4F3869577956795B795F795CC
:10458000E7959F5FC1F7FE2B880F911D9695879544
:1045900097F908950E94E321880B990B0895A1E2F1
:1045A0001A2EAA1BBB1BFD010DC0AA1FBB1FEE1FAD
:1045B000FF1FA217B307E407F50720F0A21BB30BF8
:1045C000E40BF50B661F771F881F991F1A9469F774
:1045D00060957095809590959B01AC01BD01CF01D0
:1045E0000895EE0FFF1F0590F491E02D09940F93AD
:1045F0001F93CF93DF938230910510F482E090E017
:10460000E0918B03F0918C0330E020E0B0E0A0E07B
:10461000309799F42115310509F44AC0281B390B4C
:1046200024303105D8F58A819B816115710589F1A6
:10463000FB0193838283FE0111C04081518102817D
:10464000138148175907E0F04817590799F4109754
:1046500061F012960C93129713961C933296CF0129
:10466000DF91CF911F910F91089500938B031093C9
:104670008C03F4CF2115310551F04217530738F060
:10468000A901DB019A01BD01DF01F801C1CFEF01F2
:10469000F9CF90938C0380938B03CDCFFE01E20F73
:1046A000F31F819391932250310939832883D7CF07
:1046B0002091890330918A03232B41F42091020138
:1046C0003091030130938A032093890320910001E4
:1046D000309101012115310541F42DB73EB74091CC
:1046E000040150910501241B350BE0918903F091E1
:1046F0008A03E217F307A0F42E1B3F0B2817390794
:1047000078F0AC014E5F5F4F2417350748F04E0F2D
:104710005F1F50938A0340938903819391939FCFA6
:10472000F0E0E0E09CCFCF93DF930097E9F0FC014D
:10473000329713821282A0918B03B0918C03ED010A
:1047400030E020E01097A1F420813181820F931F87
:104750002091890330918A032817390709F061C035
:10476000F0938A03E0938903DF91CF910895EA01E2
:10477000CE17DF07E8F54A815B819E01411551059F
:10478000B1F7E901FB83EA8349915991C40FD51F21
:10479000EC17FD0761F4808191810296840F951FCB
:1047A000E90199838883828193819B838A83F0E0E6
:1047B000E0E012968D919C9113970097B9F52D9199
:1047C0003C911197CD010296820F931F209189038E
:1047D00030918A032817390739F6309751F510922E
:1047E0008C0310928B03B0938A03A0938903BCCFF0
:1047F000D383C28340815181840F951FC817D90785
:1048000061F44E5F5F4F88819981480F591F518332
:1048100040838A819B81938382832115310509F02E
:10482000B0CFF0938C03E0938B039ECFFD01DC01AE
:10483000C0CF13821282D7CF81E090E0F8940C941D
:104840002824DC0101C06D9341505040E0F70895E9
:1048500015E0C1ECD5E004C0FE010E94F1222196D2
:0A486000C23CD107C9F7F894FFCF5E
:10486A0000008D038000000000008F06EF051C0683
:10487A00DC064D062B063F0600000000D210A510EC
:10488A00EE13EC059E108B107C10000000007E0CCD
:10489A00EF05EE134A108909EC05230FFB0E170FDB
:1048AA000B0F9D0FEC05440A9813F9084209440EB0
:1048BA00270EAF0D500D0D0A006E616E00696E660F
:1048CA00006F766600616463313D00616463323D66
:1048DA000076313D0076323D004261747431000049
:00000001FF
